:020000040000FA
:100000000C942E010C94F5230C94CE230C945601E1
:100010000C9456010C9456010C943B250C94C2226E
:100020000C9456010C9456010C9456010C945601F4
:100030000C9456010C9456010C9456010C945601E4
:100040000C9484230C9456010C9444230C941E238A
:100050000C9456010C9456010C9456010C945601C4
:100060000C941C240C94560100407A10F35A00A002
:10007000724E18090010A5D4E80000E87648170071
:1000800000E40B54020000CA9A3B000000E1F505B1
:10009000000080969800000040420F000000A086FB
:1000A00001000000102700000000E803000000002D
:1000B0006400000000000A000000000001000000D1
:1000C00000002C76D888DC674F0823DFC1DFAE59EB
:1000D000E1B1B796E5E3E453C63AE651997696E87E
:1000E000E6C28426EB898C9B62ED407C6FFCEFBC02
:1000F0009C9F40F2BAA56FA5F490055A2AF75C932D
:100100006B6CF9676DC11BFCE0E40D47FEF520E662
:10011000B500D0ED902E0300943577050080841E45
:10012000080000204E0A000000C80C333333330FA0
:10013000986E12831141EF8D2114893BE65516CF3D
:10014000FEE6DB18D1844B381BF77C1D901DA4BB49
:10015000E424203284725E228100C9F124ECA1E5FE
:100160003D2720487A005B5358313237385D2046AE
:1001700072657175656E6379206572726F723A206F
:1001800000206442005B5358313237385D20534EB3
:10019000523A20002064426D005B535831323738A8
:1001A0005D20525353493A200020627073005B5324
:1001B00058313237385D2044617461726174653A38
:1001C00009005375636365737321004661696C654B
:1001D000642C20636F646520004661696C6564204F
:1001E000746F20726561642066726F6D20485333AE
:1001F0003030782073656E736F722100000000004C
:10020000240027002A000000000023002600290007
:1002100000000008000201000003040700000000C5
:1002200000000000010204081020408001020408C0
:100230001020010204081020000000002500280002
:100240002B00040404040404040402020202020257
:1002500003030303030302008125AE2711241FBEFD
:10026000CFEFD8E0DEBFCDBF12E0A0E0B1E0E8E222
:10027000FFE502C005900D92AE36B107D9F726E032
:10028000AEE6B2E001C01D92AE3BB207E1F711E06D
:10029000CDE2D1E004C02197FE010E948A2DCC322C
:1002A000D107C9F70E94BD260C94872F0C9400003B
:1002B000CF93DF9390E0FC01EC5DFD4F24918E5BCA
:1002C0009D4FFC0184918823C9F090E0880F991F0D
:1002D000FC01E450FE4FA591B491FC01E85CFD4F98
:1002E000C591D49161110DC09FB7F8948C91209560
:1002F00082238C938881282328839FBFDF91CF910D
:100300000895623051F49FB7F8943C91822F809504
:1003100083238C93E8812E2BEFCF8FB7F894EC9149
:100320002E2B2C938FBFEACF2FB7F8946091CD027C
:100330007091CE028091CF029091D0022FBF08958C
:100340003FB7F8948091D1029091D202A091D3024C
:10035000B091D40226B5A89B05C02F3F19F0019695
:10036000A11DB11D3FBFBA2FA92F982F8827BC010F
:10037000CD01620F711D811D911D42E0660F771F37
:10038000881F991F4A95D1F70895DC019096ED9149
:10039000FC91919792962D913C91A901417055271E
:1003A000309719F44115510579F035952795820F4D
:1003B000931F452B41F0DC012D913C91E20FF31F7F
:1003C0000190F081E02D09940895DC019496ED915F
:1003D000FC91959796962D913C91A90141705527D6
:1003E000309719F44115510579F035952795820F0D
:1003F000931F452B41F0DC012D913C91E20FF31F3F
:100400000190F081E02D09948FEF0895DC0198961A
:10041000ED91FC9199979A962D913C91A90141708B
:100420005527309719F44115510579F035952795E1
:10043000820F931F452B41F0DC012D913C91E20F7F
:10044000F31F0190F081E02D09940895DC019C9642
:10045000ED91FC919D979E962D913C91A901417043
:100460005527309719F44115510579F035952795A1
:10047000820F931F452B41F0DC012D913C91E20F3F
:10048000F31F0190F081E02D0994089508950895D7
:100490004F925F926F927F928F929F92AF92BF9294
:1004A000CF92DF92EF92FF920F931F93CF93DF9340
:1004B00000D000D01F92CDB7DEB78B0129013A01E1
:1004C000909104018917C9F09F3F09F47EC00F90F5
:1004D0000F900F900F900F90DF91CF911F910F9180
:1004E000FF90EF90DF90CF90BF90AF909F908F9054
:1004F0007F906F905F904F900895E6E5F2E09491C1
:100500009D8397FDE4CF61E00E9458018D8188238F
:1005100021F09D81923009F04AC14801B12CA12CF3
:1005200060E072E18AE790E0A50198010E94602BEB
:1005300029833A834B835C8369017A0181E0C81A7D
:10054000D108E108F1089FEFC916D104E104F104D4
:1005500009F00CF401C160E472E48FE090E0A501C1
:1005600098010E94602B69017A0181E0C81AD108C4
:10057000E108F1089D81923009F0A2C08FEFC81602
:10058000D104E104F10409F00CF4E6C160E970ED76
:1005900083E090E0A50198010E94602B69017A0137
:1005A00091E0C91AD108E108F1088FEFC816D1040B
:1005B000E104F10411F00CF07FC183E09091B100EF
:1005C000987F892B8093B100CFC080930401E6E52A
:1005D000F2E094919D839F3F09F479CF913041F1EE
:1005E00050F0923009F446C09D8197FD70CF61E0D4
:1005F0000E9458018ECF14BC15BC94B5926094BD76
:1006000095B5916095BD282F30E0F901EE5BFD4F67
:10061000E491F0E0EE0FFF1FE85CFD4F459154912F
:10062000F901EC5DFD4FE491E093D6021D826BCFA2
:1006300010928000109281009091810098609093B8
:10064000810090918100916090938100282F30E08B
:10065000F901EE5BFD4FE491F0E0EE0FFF1FE85C67
:10066000FD4F45915491F901EC5DFD4FE491E0930C
:10067000D50249CF1092B0001092B1009091B00015
:1006800092609093B0009091B10091609093B1000E
:10069000282F30E0F901EE5BFD4FE491F0E0EE0F22
:1006A000FF1FE85CFD4F459154915093E002409349
:1006B000DF02F901EC5DFD4FE491E093E10223CF0D
:1006C0009FEFC916D104E104F10409F00CF46DC0E8
:1006D00068E478EE81E090E0A50198010E94602B2B
:1006E00069017A0181E0C81AD108E108F1089D8109
:1006F000992309F4FAC08FEFC816D104E104F1047C
:1007000011F00CF0FBC0EFC064E274EF80E090E009
:10071000A50194010E94602B69017A0181E0C81A49
:10072000D108E108F10885E09FEFC916D104E10482
:10073000F10409F008F442CF62E17AE780E090E04A
:10074000A50194010E94602B69017A0181E0C81A19
:10075000D108E108F108E5C081E09D8191112ECF1B
:1007600095B5987F892B85BD2FEF3FEFA9014114E7
:1007700051046104710409F043C09D81913009F472
:100780005EC0923009F46DC09111A1CEC7BC209318
:10079000DB023093DC024093DD025093DE02809155
:1007A0006E00826080936E0092CE82E0D6CFB12C34
:1007B000A12C60E072E18AE790E0A50198010E9417
:1007C000602B69017A0181E0C81AD108E108F108BB
:1007D000C114D10491E0E906F10404F591E08D81A2
:1007E000813011F680918100887F892B8093810070
:1007F0002FEF3FEFA9014114510461047104F9F096
:10080000D801AA0FBB1FA30192010E947F2B28EEE3
:1008100033E040E050E00E94C12BAFCF68E478EEB7
:1008200081E090E0A50198010E94602B69017A01A6
:1008300081E0C81AD108E108F10893E0D0CFD09246
:100840008900C09288002093D7023093D802409349
:10085000D9025093DA0280916F00826080936F001A
:1008600036CEC092B3002093E2023093E30240936D
:10087000E4025093E50280917000826080937000E2
:1008800026CE84E09FEFC916D104E104F10409F0FB
:1008900008F466CFC980DA80EB80FC808AE0F594AA
:1008A000E794D794C7948A95D1F781E0C81AD10804
:1008B000E108F10885E054CF68E478EE81E090E04B
:1008C000A50198010E94602B69017A0181E0C81A94
:1008D000D108E108F1089FEFC916D104E104F10441
:1008E00011F00CF011CF84E069CE83E09FEFC916C0
:1008F000D104E104F10409F00CF432CF62E17AE7AB
:1009000080E090E0A50194010E94602B69017A01CA
:1009100081E0C81AD108E108F1089D81992309F402
:10092000B0CF86E09FEFC916D104E104F10409F0CD
:1009300008F444CEC980DA80EB80FC809AE0F5941C
:10094000E794D794C7949A95D1F781E0C81AD10853
:10095000E108F10887E032CE82E030CEAF92BF925C
:10096000CF92DF92EF92FF920F931F93CF93DF937B
:100970006C017B018B01040F151FEB015E01AE18AA
:10098000BF08C017D10759F06991D601ED91FC91CC
:100990000190F081E02DC6010995892B79F7C501F9
:1009A000DF91CF911F910F91FF90EF90DF90CF904B
:1009B000BF90AF900895FC01538D448D252F30E0FA
:1009C000842F90E0821B930B541718F087509F4F91
:1009D000089501970895FC01918D828D9817A9F0D3
:1009E000A28DAE0FBF2FB11D5D968C91228D2F5F12
:1009F00091E02A3F08F490E0392F330F330F931B17
:100A0000990F291B228F90E008958FEF9FEF089593
:100A1000FC01918D828D981731F0828DE80FF11DC8
:100A2000858D90E008958FEF9FEF0895FC01918DE3
:100A3000228D892F90E086509F4F821B91096AEF8B
:100A400070E00E94622D08958EE593E00E941605E5
:100A500021E0892B09F420E0822F089580E090E0C6
:100A6000892B29F00E94240581110C94000008951F
:100A7000FC01A48DA80FB92FB11DA95EBE4F2C910A
:100A8000848D90E001966AEF70E00E94762D848F4D
:100A9000A689B7892C93A089B1898C9183708064D1
:100AA0008C93938D848D981306C00288F389E02D72
:100AB00080818F7D80830895FF920F931F93CF9342
:100AC000DF93EC0181E0888F9B8D8C8D981319C08A
:100AD000E889F989808185FF14C09FB7F894EE8971
:100AE000FF896083E889F9898081837080648083CD
:100AF0009FBF81E090E0DF91CF911F910F91FF9018
:100B00000895062F8B8D90E001966AEF70E00E94A9
:100B1000762D182FF82E8C8D8F110CC00FB607FC78
:100B2000FACFE889F989808185FFF5CFCE010E944F
:100B30003805F1CFEB8DEC0FFD2FF11DE95EFE4F77
:100B400000839FB7F8941B8FEA89FB8980818062BC
:100B5000CECF0F931F93CF93DF938C01D0E0C0E0F3
:100B6000F801EC0FFD1F6491662341F08EE593E0E0
:100B70000E945C05892B11F02196F2CFCE01DF9106
:100B8000CF911F910F910895CF93DF93EC01888D42
:100B90008823B9F0AA89BB89E889F9898C9185FDF8
:100BA00003C0808186FD0DC00FB607FCF7CF8C9186
:100BB00085FFF2CF808185FFEDCFCE010E94380501
:100BC000E9CFDF91CF910895833081F028F481300F
:100BD00099F08230A9F008958730A9F08830C9F0E3
:100BE0008430B1F4809180008F7D03C080918000BB
:100BF0008F7780938000089584B58F7784BD0895A2
:100C000084B58F7DFBCF8091B0008F778093B0004B
:100C100008958091B0008F7DF9CFCF93DF93282F77
:100C200030E0F901E05FFD4F8491F901EC5DFD4F8B
:100C3000D491F901EE5BFD4FC491CC23A1F0811159
:100C40000E94E405EC2FF0E0EE0FFF1FEA5FFD4F7E
:100C5000A591B491EC91ED2381E090E009F480E05E
:100C6000DF91CF91089580E090E0FACF1F93CF936A
:100C7000DF93282F30E0F901E05FFD4F8491F90107
:100C8000EC5DFD4FD491F901EE5BFD4FC491CC2397
:100C9000A9F0162F81110E94E405EC2FF0E0EE0F71
:100CA000FF1FE85CFD4FA591B4918FB7F894EC91CC
:100CB000111108C0D095DE23DC938FBFDF91CF9157
:100CC0001F910895DE2BF8CF9091040189130BC07A
:100CD000E6E5F2E0E4919FEF90930401E13049F002
:100CE00028F0E23061F060E00C94360610926E005D
:100CF000FACF90916F009D7F90936F00F4CF909109
:100D000070009D7F9093700091E09093B00090915F
:100D1000B100987F94609093B1001092B300E3CF3C
:100D20008230910538F0880F991F880F991F059719
:100D30000197F1F7089508958F929F92AF92BF9215
:100D4000CF92DF92EF92FF926B017C010E94A00193
:100D50004B015C01C114D104E104F104B9F00E941B
:100D6000A001681979098A099B09683E73408105C9
:100D7000910580F321E0C21AD108E108F10888EE5C
:100D8000880E83E0981EA11CB11CE4CFFF90EF9069
:100D9000DF90CF90BF90AF909F908F90089582305A
:100DA00068F4E82FF0E0813051F0E898EE0FFF1F73
:100DB000E050FF4F81EE96E0918380830895E9989B
:100DC000F5CF08958230E8F4E82FF0E0EE0FFF1F32
:100DD000E050FF4F71836083813041F08091690062
:100DE0008C7F482B40936900E89A089580916900B0
:100DF000837F440F551F440F551F482B40936900B4
:100E0000E99A089587EE9FEF08950F931F93CF936C
:100E1000DF93EC01862F0E940D06682F8E01085E7D
:100E20001E4FF8018081811133C09E01255F3E4F26
:100E3000F90180819181A281B381880F991FAA1F36
:100E4000BB1F862B80839183A283B383275F3F4F91
:100E5000F901408151816281738184239523A62306
:100E6000B72325503109F901408151816281738195
:100E700084179507A607B70731F481E0F80180834E
:100E800019861A861886DF91CF911F910F910895C8
:100E90004985FE01E40FF11D5385988521E030E07E
:100EA000092E01C0220F0A94EAF7662311F1252BBF
:100EB00023879F5F9887983031F72385229530E00C
:100EC000C90195958795959587958373220F331F53
:100ED000220F331F2C7C822B90E09C0135952795A7
:100EE0002575880F991F8A7A822B83874F5F4987E0
:100EF000C9CF20952523DCCF875E9E4FDC01ED9185
:100F0000FC9183A98F3F79F0823059F0833059F4F6
:100F100081E00684F785E02D309729F043E050E02A
:100F2000099480E0F6CF0895875E9E4FFC01808192
:100F300091810895262FDC011496ED91FC91309754
:100F400019F0642F822F099408958091CB02882391
:100F500061F09FB7F8942091CB028091CA022130B2
:100F600019F48DBB9FBF08958FBF0895FC0126A97A
:100F700097A98091CB02882361F08FB7F8943091C4
:100F8000CB02313049F43DB33093CA023DB33DBB8F
:100F90008FBF2CBD9DBD08958093CA02FACFCF9319
:100FA000CFB7F8948091C902811127C0ECE4F2E038
:100FB0008491EEE2F2E09491E82FF0E0EE0FFF1F53
:100FC000E450FE4FA591B491EC91E92321F461E046
:100FD0008AE00E94360661E08AE00E9458018CB5E2
:100FE00080618CBD8CB580648CBD61E08DE00E9419
:100FF000580161E08BE00E9458018091C9028F5F27
:101000008093C902CFBFCF910895DC015A96ED912C
:10101000FC91309709F0099460E070E0CB010895ED
:10102000DC015496ED91FC91309719F0CB01BA0197
:1010300009940895DC015296ED91FC91309709F0E6
:10104000099408956F3F49F0DC011896ED91FC91E9
:10105000309719F0862F0995089580E00895FC01D6
:10106000862F6F3F39F00680F781E02D309711F021
:10107000642F09940895CF93DF93EC01C75EDE4F90
:1010800088819981FC0162A96F3F19F041E00E94BB
:101090009A078881998140E0FC0162A90E942F088B
:1010A00041E050E060E070E0888199810E94100882
:1010B0008881998141E0FC0162A90E942F0845E0E6
:1010C00050E060E070E088819981DF91CF910C94CD
:1010D00010081F93CF93DF93FC0121AD222371F001
:1010E000142F462FEC0162AD0E942F08412F6BADEB
:1010F000CE01DF91CF911F910C942F08DF91CF91FA
:101100001F9108958EBD00000DB407FEFDCF8EB572
:101110000895BF92CF92DF92EF92FF920F931F93A9
:10112000CF93DF93EC01F62EB42E6901E881F981AB
:101130000190F081E02D099540E068A9CE010E9460
:101140002F088B2D8F290E9482088B818F1111C04F
:10115000C114D10419F18601F12CC8018C199D0923
:101160008E159F05D8F4F80181918F010E948208A5
:10117000F4CF8A818F1112C00115110579F0680131
:10118000F12CC601801B910B8E159F0538F480E071
:101190000E948208F60181936F01F3CF41E068A9B4
:1011A000CE010E942F08E881F9810280F381E02DB1
:1011B000CE01DF91CF911F910F91FF90EF90DF90C3
:1011C000CF90BF900994EF920F931F93CF93DF932B
:1011D0001F92CDB7DEB74983EE24E39410E000E020
:1011E0009E012F5F3F4F462FFC0163810E948908BB
:1011F0000F90DF91CF911F910F91EF900895EF9293
:101200000F931F93CF93DF931F92CDB7DEB7462F77
:101210001982EE24E3948E010F5F1F4F30E020E02F
:10122000FC0162810E94890889810F90DF91CF9132
:101230001F910F91EF900895875E9E4F61E0FC0132
:10124000808191810E94FF08807890E00895CF937B
:10125000DF93EC010E941C098038910551F4C75EB0
:10126000DE4F4FEF62E188819981DF91CF910C943D
:10127000E308892B59F4C75EDE4F4FEF6EE3888198
:1012800099810E94E3084FEF6FE3EDCFDF91CF919B
:101290000895DF92EF92FF920F931F93CF93DF9306
:1012A000EC01D62E0E941C0980389105D9F4FE016C
:1012B000ED5DFE4F8081863081F0C75EDE4F63E1D9
:1012C000888199810E94FF0890E0DF91CF911F9162
:1012D0000F91FF90EF90DF900895C45DDE4F8881FD
:1012E0009981F3CF8E01045D1E4F892BF1F47E01AD
:1012F0008EECE81A8EEFF80AF7018081811115C093
:10130000DD2099F0799780819181CD5CDE4F288135
:1013100060E0203809F062E30E94FF0890E0F801E5
:101320009183808381E0F7018083F801808191813E
:10133000CCCFCF93DF93EC010E941C09803891053C
:10134000B9F4C75EDE4F69E1888199810E94FF0888
:10135000682F880F770B880B990B0E94432A20E097
:1013600030E040E85EE30E94A22ADF91CF91089529
:1013700060E070E0CB01F9CF8F929F92AF92BF9265
:10138000CF92DF92EF92FF920F931F93CF93DF9351
:10139000EC018B016A010E941C094C01E881F98172
:1013A0000280F381E02DCE010995E881F98104885E
:1013B000F589E02D61E0CE0109957C01C114D104CD
:1013C00039F0C816D90668F58C199D0976016C01AB
:1013D0005E0127EEA21A2EEFB20AF50180819181FB
:1013E000F0E88F16910471F5FE01E65DFE4F208155
:1013F0002223D1F06CE10E94FF0886FD15C0CE01CA
:101400000E94270988EE9FEFDF91CF911F910F91E6
:10141000FF90EF90DF90CF90BF90AF909F908F9014
:101420000895D12CC12CD4CF62E1F5018081918146
:101430000E94FF0885FF16C0CE010E94270989EF90
:101440009FEFE2CF892871F460E30E94FF08867065
:10145000823011F0843031F460E0F50180819181B7
:101460000E94FF08F5018081918130E020E040E09A
:10147000FC0162810E948908C114D10451F060E02E
:10148000F501808191810E94FF08F1E0CF1AD10817
:10149000F3CFFE01EE5CFE4F1082CE010E942709C1
:1014A00090E080E0B1CF4F925F926F927F92AF92C7
:1014B000BF92CF92DF92EF92FF920F931F93CF9341
:1014C000DF93283008F060C0083008F05DC02017B6
:1014D00008F45AC01C2DC22F742ED62F5C010E9416
:1014E000FF0821E02C0F6FEF70E0AB0102C0440F4A
:1014F000551F2A95E2F79A0148E050E0401B510938
:1015000002C0759567954A95E2F7262BC22FC095C4
:101510002823C721C22B4C2F6D2FC5010E94E30841
:10152000C5010E9405082B013C0128EE33E0E29E34
:101530006001E39ED00C11240D2C000CEE08FF0876
:10154000C5010E94050864197509860997096C157B
:101550007D058E059F05D8F46D2FC5010E94FF08FB
:101560008C27812369F790E080E0DF91CF911F9174
:101570000F91FF90EF90DF90CF90BF90AF907F9052
:101580006F905F904F90089585EF9FEFEECF80EFC3
:101590009FEFEBCFCF92EF920F931F93663058F5EA
:1015A000FC01E75EFE4F80819181E62FF0E0362F4F
:1015B000330F643098F403E010E00E1B1F0B000F94
:1015C00027E0231BCC24CA9452E0E52E60E40E945D
:1015D000530A1F910F91EF90CF90089507E010E00C
:1015E0000E1B1F0B000F2FE0231BCC24CA9432E0EC
:1015F000E32E61E4ECCF86EE9FEFEBCFCF92EF923C
:101600000F931F93CF93DF93EC01162F0E941C09B9
:10161000892B19F48EEF153009F08FEFC75EDE4F7E
:10162000C82E85E0E82E00E022E0412F61E08881AD
:1016300099810E94530ADF91CF911F910F91EF90F2
:10164000CF900895AF92BF92CF92DF92EF92FF9228
:101650000F931F93CF93DF93EC010E941C09892BFA
:10166000E9F591E1E92E65E0CE010E94FE0A5E01F6
:1016700087EEA81A8EEFB80A4AE050E060E070E00A
:10168000F501808191810E94100810E000E0F12CAA
:101690006E2DF501808191810E94FF0880FBCC2492
:1016A000C0F8D12CC601002E01C0880F0A94EAF7B9
:1016B000F82A0F5F1F4F0830110551F761E0CE0186
:1016C0000E94FE0A8F2DDF91CF911F910F91FF9005
:1016D000EF90DF90CF90BF90AF9008958CE2E82E0E
:1016E000C2CFCF93DF93EC01FC01E75EFE4F40E0F9
:1016F00060E0808191810E94690861E0CE01DF9104
:10170000CF910C94FE0ACF92EF920F931F93CF9339
:10171000DF93EC01162F0E941C09892B89F51130EB
:10172000D9F028F0123011F189EE9FEF0EC0C75E9C
:10173000DE4FCC24CA9422E0E22E05E026E040E011
:1017400060E3888199810E94530ADF91CF911F91B4
:101750000F91EF90CF900895C75EDE4FCC24CA94CE
:1017600092E0E92E05E026E040E2EACFC75EDE4FD8
:10177000CC24CA9482E0E82E05E026E040E4E0CFE5
:101780008CEE9FEFE2CF4F925F926F927F92AF927B
:10179000BF92CF92EF920F93CF93DF93EC012A0188
:1017A0003B015C0187EEA81A8EEFB80A64E2F501EE
:1017B000808191810E94FF0881114BC061E0CE01C0
:1017C0000E94FE0AEC0120E030E040E059E4C30151
:1017D000B2010E94A22A20E030E040E05DE30E94D6
:1017E000A22A0E94E82C2B013C01A301662777273F
:1017F000CC24CA9492E0E92E00E027E066E0F501EF
:10180000808191810E94530AC82BD92B7727672D9D
:10181000562D452D27E067E0F501808191810E94DA
:10182000530AC82BD92B27E0442D68E0F5018081AD
:1018300091810E94530A8C2B9D2BDF91CF910F91A8
:10184000EF90CF90BF90AF907F906F905F904F9050
:101850000895D0E0C0E0B7CF4F925F926F927F9231
:10186000AF92BF92CF92DF92EF92FF920F931F93AE
:10187000CF93DF93EC015A016B010E941C09892B65
:1018800009F07DC020E030E0A901B501C6010E9449
:101890003C2A7501860187FF06C02AE9E22E39E954
:1018A000F32E09E11FE320E030E040E05FE3FE01BA
:1018B000EB5DFE4F60817181828193810E94A22A3B
:1018C0009701A8010E94F32B20E030E04AE753E49F
:1018D0000E943C2A18160CF455C020E030E048E481
:1018E00053E4B501C6010E943C2A18160CF44AC004
:1018F00061E0CE010E94FE0A009791F520E030E001
:1019000040E059E4B701C8010E94A22A20E030E07B
:101910004AEF56E40E94762C0E94E82C2B013C01F1
:101920007727672D562D452D5E0187EEA81A8EEF7D
:10193000B80ACC24CA9492E0E92E00E025E064E0E5
:10194000F501808191810E94530AEC0127E0442D2A
:1019500065E0F501808191810E94530A8C2B9D2BBB
:10196000DF91CF911F910F91FF90EF90DF90CF907B
:10197000BF90AF907F906F905F904F9008958CEEE6
:101980009FEFEECF8AE99FEFEBCF2F923F924F92DE
:101990005F926F927F928F929F92AF92BF92CF92FF
:1019A000EF920F931F93CF93DF9300D000D0CDB76A
:1019B000DEB75C017A8369835C834B83522E61E0DE
:1019C0000E94FE0A4C01C5010E941C091C0180E80E
:1019D0002816310409F04EC0AB81BC818CEF9FEF1B
:1019E000AF3FB10511F008F0C3C02501B7EE4B1AA7
:1019F000BEEF5B0A64E2F201808191810E94FF08E0
:101A0000D201ED91FC91CC24CA9442E0E42E04E092
:101A1000811101C006E027E040E460E4CF010E94AC
:101A2000530AC5010E942709CC24CA9432E0E32E50
:101A300000E027E04B8162E2F201808191810E9407
:101A4000530A3C0127E040E06EE0D2018D919C9169
:101A50000E94530A86299729882A992A27E040E07C
:101A60006DE0F201808191810E94530A882A992AAF
:101A7000EB8051C021143104D9F7C5010E94270918
:101A8000C501875E9E4F3C01AB81BC81CC24CA94CA
:101A900022E0E22EA134B10508F47FC004E025E085
:101AA00040E160E4FC01808191810E94530AF501CC
:101AB000ED5CFE4F8081803839F44B8160E0F301AA
:101AC000808191810E94E30860E3D3018D919C9114
:101AD0000E94FF088670823011F0843039F4452D61
:101AE00060E0F301808191810E94E3088B819C81F9
:101AF0008134910508F4BCCFCC24CA9482E0E82E4E
:101B000007E027E040E865E3D3018D919C910E94B6
:101B1000530A9EE1E92E3501B7EE6B1ABEEF7B0A40
:101B2000F3018081918110E000E029813A8140E059
:101B3000DC0113966C910E948908232861F4EB81E3
:101B4000FC81E134F10538F04FE260E0D3018D9182
:101B50009C910E94E30841E060E0F3018081918163
:101B60000E94690863E0C5010E94FE0A882999293C
:101B70000F900F900F900F90DF91CF911F910F91C9
:101B8000EF90CF90BF90AF909F908F907F906F908D
:101B90005F904F903F902F90089506E027E040E03F
:101BA00060E4DC018D919C9180CF8F929F92AF92E7
:101BB000BF92CF92EF92FF920F931F93CF93DF9339
:101BC0005C01F62E142F61E00E94FE0A009709F0D6
:101BD00056C0C5010E941C099501275E3E4F490170
:101BE0008038910509F057C064E2D9018D919C912C
:101BF0000E94FF08D401ED91FC91CC24CA9432E0FC
:101C0000E32E04E027E040E4811101C040E060E4FD
:101C1000CF010E94530AEC01F501ED5DFE4F80817A
:101C2000863079F4CC24CA9422E0E22E00E027E04A
:101C30004F2D62E2F401808191810E94530AC82BEA
:101C4000D92BC5010E942709CC24CA9492E0E92E21
:101C500000E027E040E06FE0D4018D919C910E946C
:101C6000530AC82BD92B27E040E06DE0F4018081B6
:101C700091810E94530A8C2B9D2B0097C1F1DF911B
:101C8000CF911F910F91FF90EF90CF90BF90AF90A9
:101C90009F908F900895892B51F5CC24CA9482E0AF
:101CA000E82E06E027E040E060E4D4018D919C91AD
:101CB0000E94530A009719F7C5010E9427091530A1
:101CC000B1F440E061E0F401808191810E946908F3
:101CD00065E0C501DF91CF911F910F91FF90EF90CB
:101CE000CF90BF90AF909F908F900C94FE0A40E0F1
:101CF00061E0D4018D919C910E946908612FE9CF28
:101D0000AF92BF92CF92EF920F93CF93DF935C018C
:101D100061E00E94FE0A009741F5E501C75EDE4FD3
:101D2000CC24CA9482E0E82E02E025E040E060E4A2
:101D3000888199810E94530A0097B9F4C5010E94D5
:101D40001C09892BD1F400E022E040E06DE088819D
:101D500099810E94530A009741F406E026E040E092
:101D600061E3888199810E94530ADF91CF910F919D
:101D7000EF90CF90BF90AF9008958CEE9FEFF5CF8E
:101D8000CF93DF93EC010E941C09892BA1F440E062
:101D900061E0FE01E75EFE4F808191810E9469084B
:101DA000CE010E94800E009741F465E0CE01DF91E4
:101DB000CF910C94FE0A8CEE9FEFDF91CF910895A6
:101DC000CF92DF92EF92FF920F931F93CF93DF9307
:101DD000EC016A017B010E941C09892B09F043C0B8
:101DE0008E01075E1E4F41E060E0F8018081918125
:101DF0000E946908C114D104E104F10431F1A70182
:101E00006627772766E0F801808191810E94E308C8
:101E100077276F2D5E2D4D2D67E0F8018081918130
:101E20000E94E3084C2D68E0F801808191810E94B6
:101E3000E30863E0CE01DF91CF911F910F91FF90F6
:101E4000EF90DF90CF900C94FE0ACE010E94800E9E
:101E5000009779F3DF91CF911F910F91FF90EF9051
:101E6000DF90CF9008958CEE9FEFF4CF3F924F928A
:101E70005F926F927F928F929F92AF92BF92CF921A
:101E8000DF92EF92FF920F931F93CF93DF93EC01BA
:101E9000362E0E941C098038910509F094C18E01EC
:101EA000015E1E4F20E030E04AEF53E4F80160810C
:101EB0007181828193810E94F22B9F772FE632E11C
:101EC00043E85AE30E943C2A9E01255E3E4F590199
:101ED000181664F1F901C080D180E280F38020E01F
:101EE00030E847E554E4C701B6010E94582D87FD4C
:101EF00047C020E030E04FE754E4C701B6010E943C
:101F00003C2A1816ECF142E066E37E01F7EEEF1A88
:101F1000FEEFFF0AF701808191810E94E30844E609
:101F20006AE3F701808191810E94E308F501C08096
:101F3000D180E280F380F80140805180628073801C
:101F40002AE939E949EF50E4C301B2010E94F22BBA
:101F50009F772FE632E143E85AE30E943C2A1816A5
:101F600094F127E03BEE4FEF5BE3C701B6010E941F
:101F7000F32B6B017C0110E048E4942E812CF3C01C
:101F800020E030E04DEC53E4C701B6010E94582D2B
:101F900087FDCCCF20E030E443E054E4C701B60134
:101FA0000E943C2A18160CF4C1CF42E066E37E0181
:101FB000F7EEEF1AFEEFFF0AF701808191810E9490
:101FC000E3084FE7ADCF26E636E646E251E4C3012B
:101FD000B2010E94F22B9F772FE632E143E85AE3E9
:101FE0000E943C2A26EA38EB4AE25CE318160CF021
:101FF00055C02AE939E949E751E4C301B2010E9419
:10200000F22B9F772FE632E143E85AE30E943C2A05
:1020100027E03BEE4FE75CE318160CF03FC026E6E6
:1020200036E646EA51E4C301B2010E94F22B9F77E3
:102030002FE632E143E85AE30E943C2A2DEA33EAD4
:102040004AEA5CE3181654F520E030E04AEF51E428
:10205000C301B2010E94F22B9F772FE632E143E8E1
:102060005AE30E943C2A20E030E040E05DE318168D
:10207000ACF42DEC3CEC46E252E4C301B2010E9408
:10208000F22B9F772FE632E143E85AE30E943C2A85
:10209000181674F029E23EEA4AE25DE3C701B60190
:1020A0000E94F32B6B017C0110E034E4932E66CF89
:1020B00020E030E04AE752E4C301B2010E94F22B73
:1020C0009F772FE632E143E85AE30E943C2A181634
:1020D0000CF08BC020E030E04AEF52E4C301B201C3
:1020E0000E94F22B9F772FE632E143E85AE30E94E9
:1020F0003C2A18160CF079C020E030E04AE753E49F
:10210000C301B2010E94F22B9F772FE632E143E830
:102110005AE30E943C2A18160CF067C020E030E019
:102120004AEF53E4C301B2010E94F22B9F772FE6DE
:1021300032E143E85AE30E943C2A18160CF443C0EB
:102140006FE28E01075E1E4FF801808191810E942F
:10215000FF08982E60E3F801808191810E94FF08BA
:10216000182F20E4822EE881F9810280F381E02D8E
:10217000CE010995B701A601311005C0F5014081D6
:10218000518162817381CE010E94C30BC75EDE4F15
:10219000CC24CA9482E0E82E07E027E0482D61E3D2
:1021A000888199810E94530A00E027E0492D6FE25F
:1021B000888199810E94530A27E0412F60E388813A
:1021C00099810E94530ADF91CF911F910F91FF9047
:1021D000EF90DF90CF90BF90AF909F908F907F90C7
:1021E0006F905F904F903F90089510E090E4992E8B
:1021F000C5CE2091A602260F3327331F2132310589
:10220000ECF420913603FC0190E080E0243069F08A
:1022100082E00895A091A6022191AC014A575D4F3A
:10222000A40FB52FB11D2C930196861798F38091BA
:10223000A602680F6093A60280E0089581E00895E9
:102240001092360381E0809335031092300361E0F1
:1022500082E10E94360661E083E10E943606E9EBE6
:10226000F0E080818E7F808380818D7F808388E411
:102270008093B80085E48093BC000895CF93DF93EA
:1022800091E0909385028823B9F0C091B800D09175
:10229000BA008091BC008A7B8093BC0060E082E140
:1022A0000E94360660E083E10E9436060E942011FB
:1022B000D093BA00C093B800DF91CF9108950895EC
:1022C000E0913D0380913C03E81730F4F0E0E25CDC
:1022D000FC4F808190E008958FEF9FEF08959091DB
:1022E0003D0380913C032FEF3FEF981748F4E92F0F
:1022F000F0E0E25CFC4F208130E09F5F90933D0373
:10230000C901089580913C0390913D03891B990B6D
:102310000895CF92DF92EF92FF920F931F93CF9386
:10232000DF937C01CB018A0120910F03222389F0E6
:10233000EB016B01C40ED51ECC15DD0569F069916A
:10234000D701ED91FC910190F081E02DC701099535
:10235000F3CF642F0E94F910C801DF91CF911F9134
:102360000F91FF90EF90DF90CF900895CF93DF9380
:102370001F92CDB7DEB7698320910F032223F9F0B6
:1023800020910C03203258F021E030E0FC0133832F
:10239000228390E080E00F90DF91CF9108958091AB
:1023A0000D03E82FF0E0E451FD4F998190838F5F9A
:1023B00080930D0380930C0381E090E0ECCF61E00B
:1023C000CE0101960E94F910F7CF90E080E00895C9
:1023D00060E089E00E94580162E082E10E945801B9
:1023E00062E083E10E94580162E370E080E090E0E7
:1023F0000C949C060E94E8116AE070E080E090E096
:102400000E949C0610927A0083B7816083BF14BE3D
:10241000E0E6F0E088E1808381E68083A89583B7D9
:10242000817F846083BF6AE070E080E090E00E947A
:102430009C06F89483B7816083BF80E685BF80E403
:1024400085BF7894889583B78E7F83BF08954F9218
:102450005F926F927F928F929F92AF92BF92EF9214
:10246000FF920F931F93CF93DF937C018B010E9408
:10247000A0014B015C0180913603811165C0C02F22
:1024800081E080933603809335039FEF909334036C
:1024900010923303900F9093320380933103809115
:1024A000310388688093310380913003813009F0D3
:1024B00094C0109230030E94A0014B015C018091F6
:1024C00031038093BB008091380390913903A09130
:1024D0003A03B0913B03892B8A2B8B2BA1F00E94EE
:1024E000A001409038035090390360903A037090F7
:1024F0003B03681979098A099B094616570668063D
:10250000790608F442C08091BC0083FDD8CF85ECE9
:102510008093BC000E94A0014B015C0180913603B6
:10252000813009F45CC0809133038C1710F4C091A2
:102530003303A0E1B3E0EEE3F3E080E08C1751F168
:102540009D9191938F5FFACF8091380390913903D9
:10255000A0913A03B0913B03892B8A2B8B2B09F472
:102560008ACF0E94A00140903803509039036090B8
:102570003A0370903B03681979098A099B0946164A
:1025800057066806790608F076CF809137030E94D7
:102590003E11C0E010923D03C0933C038091B80609
:1025A0009091B906DC01ED91FC910084F185E02D5C
:1025B00009955C01E701E80EF91EEC16FD0689F1AC
:1025C0008091B8069091B906DC01ED91FC910284EE
:1025D000F385E02D09958993F0CF85EE99CF809111
:1025E000380390913903A0913A03B0913B03892BB2
:1025F0008A2B8B2B09F492CF0E94A00140903803C4
:102600005090390360903A0370903B036819790940
:102610008A099B09461657066806790608F07ECF98
:10262000B4CF81E00A151B0509F080E0DF91CF915E
:102630001F910F91FF90EF90BF90AF909F908F9060
:102640007F906F905F904F9008958F929F92AF927E
:10265000BF92DF92EF92FF920F931F93CF93DF937E
:1026600000D000D0CDB7DEB77C0181E080930F03AE
:1026700084E480930E0310920D0310920C030E94C9
:10268000A0014B015C0180913603811164C082E09E
:102690008093360381E0809335038FEF809334037A
:1026A0001092330310923203109231038091310360
:1026B00088688093310380913003813009F0E9C04C
:1026C000109230030E94A0014B015C018091310304
:1026D0008093BB008091380390913903A0913A0315
:1026E000B0913B03892B8A2B8B2BA1F00E94A00178
:1026F000009138031091390320913A0330913B0344
:10270000681979098A099B090617170728073907E5
:1027100008F442C08091BC0083FDD8CF85EC809343
:10272000BC000E94A0014B015C0180913603823005
:1027300009F4B1C0809134038F3F09F4CEC0809179
:102740003403803209F4CBC080913403803309F024
:10275000C8C083E026C08091380390913903A091CE
:102760003A03B0913B03892B8A2B8B2B09F48BCF37
:102770000E94A001009138031091390320913A037F
:1027800030913B03681979098A099B0906171707D5
:102790002807390708F077CF809137030E943E1150
:1027A00085E010920D0310920C0310920F0381111B
:1027B000A6C068E270E080E090E00E949C060E9463
:1027C00094014B015C0164E070E0CE0101960E942F
:1027D0002712D82E882309F486C02981822F807C75
:1027E00009F081C06B817C81762767277627CB0132
:1027F0008C7F0A8134E0039F80011124622F70E0F6
:10280000762F6627770F770F062B172BBC0190E0EA
:1028100080E00E94412A20E03CEF4FE757E40E940D
:10282000762C20E030E045E253E40E94A22A20E02A
:1028300030E040E252E40E94F22BF70160837183A2
:1028400082839383B80190E080E00E94412A20E0D7
:102850003CEF4FE757E40E94762C20E030E048EC54
:1028600052E40E94A22AF7016483758386839783CA
:102870008D2D0F900F900F900F90DF91CF911F91A2
:102880000F91FF90EF90DF90BF90AF909F908F904F
:10289000089585EE44CF8091380390913903A0913B
:1028A0003A03B0913B03892B8A2B8B2B09F43DCF44
:1028B0000E94A001009138031091390320913A033E
:1028C00030913B03681979098A099B090617170794
:1028D0002807390708F029CF5FCF80E062CF82E078
:1028E00060CF84E05ECF0E949401681979098A095B
:1028F0009B09643671058105910508F464CF80E079
:1029000090E0A0ECBFE7F70184839583A683B783AB
:1029100080839183A283B383D12CAACFCF93DF93FB
:1029200000D0CDB7DEB710923D0310923C03109259
:102930000D0310920C030E94201186E492E0909304
:10294000EB028093EA0287E492E09093E90280939D
:10295000E80262E070E0CE0101960E9427120F901B
:102960000F90DF91CF910895AF92BF92CF92EF92E7
:102970000F931F93CF93DF93EC01162F0E941C0936
:10298000892B59F08CEE9FEFDF91CF911F910F9122
:10299000EF90CF90BF90AF9008955E0187EDA81A99
:1029A0008EEFB80AF5018081882319F1112319F0FF
:1029B00085E99FEFE9CFCE010E941C09892B11F711
:1029C000F50180818823A1F3CE010E94710B5C0187
:1029D000C75EDE4FCC24CA9442E0E42E05E026E038
:1029E00040E06AE0888199810E94530A8A299B29E4
:1029F000CBCFCE010E94710B009731F61130B9F0A8
:102A000038F01230F1F0143031F186E99FEFBCCF8D
:102A1000C75EDE4FCC24CA9432E0E32E05E026E008
:102A200040E06AE0888199810E94530AADCFC75E79
:102A3000DE4FCC24CA9422E0E22E05E026E040E6F8
:102A4000F0CFC75EDE4FCC24CA9492E0E92E05E0B9
:102A500026E040E4E6CFC75EDE4FCC24CA9482E095
:102A6000E82E05E026E040E2DCCFFC0101900020EA
:102A7000E9F73197AF01481B590BBC018EE593E094
:102A80000C94AE04CF93DF930E94A905EC018FE56F
:102A900091E00E9435158C0F9D1FDF91CF91089515
:102AA0008F929F92AF92BF920F931F93CF93DF931A
:102AB000CDB7DEB7A1970FB6F894DEBF0FBECDBF7E
:102AC00019A2423008F44AE08E010F5D1F4F842E98
:102AD000912CB12CA12CA50194010E94C12BE62FB1
:102AE000B901CA01EA30F4F4E05DD801EE938D013A
:102AF000232B242B252B79F790E080E0109719F0F9
:102B0000CD010E943515A1960FB6F894DEBF0FBE19
:102B1000CDBFDF91CF911F910F91BF90AF909F904C
:102B20008F900895E95CE1CF4F925F926F927F9210
:102B30008F929F92AF92BF92CF92DF92EF92FF92CD
:102B40000F931F93CF936B017C01742EAC019B01FB
:102B50000E945D2D882399F082E691E0CF911F912C
:102B60000F91FF90EF90DF90CF90BF90AF909F902C
:102B70008F907F906F905F904F900C943515460129
:102B80005701E894B7F82FEF3FEF4FE75FE7C50134
:102B9000B4010E945D2D81110DC02FEF3FEF4FE773
:102BA0005FE7C501B4010E943C2A18161CF486E6B2
:102BB00091E0D4CF2FEF3FEF4FE75FE4C701B601BD
:102BC0000E94582D18161CF48AE691E0C7CF2FEF0B
:102BD0003FEF4FE75FECC701B6010E943C2A87FD3B
:102BE000F3CF20E030E0A901C701B6010E943C2AE2
:102BF00010E000E087FF0AC06DE28EE593E00E94DE
:102C00005C058C01F7FAF094F7F8F094C0E060E00E
:102C100070E080E09FE37C1641F020E030E040E28D
:102C200051E40E94762CCF5FF6CFA70196010E9457
:102C3000F32B2B013C010E94E82C4B015C014AE084
:102C40000E9450157C01E00EF11ECC23C1F1C5019C
:102C5000B4010E94412A9B01AC01C301B2010E9450
:102C6000F22B4B015C016EE28EE593E00E945C0565
:102C7000E80EF91EC15018F120E030E040E251E4C6
:102C8000C501B4010E94A22A2B013C010E94E82C3C
:102C90004B01B12CA12C4AE0C501B4010E94501592
:102CA000E80EF91EC501B4010E94412A9B01AC0146
:102CB000C301B2010E94F22B4B015C01DBCFC701C3
:102CC000CF911F910F91FF90EF90DF90CF90BF9029
:102CD000AF909F908F907F906F905F904F900895EE
:102CE000CF93DF930E943515EC018FE591E00E94B0
:102CF00035158C0F9D1FDF91CF910895CF92DF92F4
:102D0000EF92FF92CF93DF936C01990FEE08FF08CB
:102D1000F7FE1FC06DE28EE593E00E945C05EC01BA
:102D200066277727CB016C197D098E099F094AE038
:102D30000E945015C80FD91F8FE591E00E943515EC
:102D40008C0F9D1FDF91CF91FF90EF90DF90CF9080
:102D500008954AE0C701B6010E945015EC01ECCF7E
:102D60008F929F92AF92BF92CF92DF92EF92FF929B
:102D70000F93CF93DF93C0918906D0918A0668A9FB
:102D80006F3F21F041E0CE010E949A0741E068A91F
:102D9000CE010E942F0888AD8823A1F02E8D3F8D93
:102DA000C901959587958C0F9D1FEC8DFD8D20FF9A
:102DB00008C0DC012D913C91E20FF31F0190F081DE
:102DC000E02D09958091890690918A06FC0161A900
:102DD0006F3F19F040E00E949A0780918906909118
:102DE0008A06DC01D3966C916F3F19F040E00E9497
:102DF0009A07C0E080E795E00E943B0862E480917A
:102E0000890690918A060E94FF08823161F580E769
:102E100095E00E94710BEC01892B09F073C0CC2462
:102E2000CA9482E0E82E00E027E040E064E280916E
:102E3000890690918A060E94530AEC01892B09F0B9
:102E400061C080E795E00E941C0980389105D1F5AA
:102E500080E795E00E941C098038910509F464C060
:102E6000CCEEDFEF4FC04AE050E060E070E08091D0
:102E7000890690918A060E941008CF5FCA3009F037
:102E8000B9CFE0918906F0918A0680AD8823B9F028
:102E900084A995A9892B99F09FB7F8948091C902CC
:102EA000882319F081508093C9028091C902811151
:102EB00005C08CB58F7B8CBD1092CB029FBFCEEF2F
:102EC000DFEF20C060E080E795E00E94FE0AEC01A1
:102ED000CC24CA9405E0E02E07E027E040E861E05A
:102EE0008091890690918A060E94530AC82BD92B9B
:102EF00061E080E795E00E94FE0AC82BD92B20975D
:102F000009F4A6CF8BEC91E00E94A905CE01DF91D8
:102F1000CF910F91FF90EF90DF90CF90BF90AF9047
:102F20009F908F900C947E1661E080E795E00E9460
:102F3000FE0ACC24CA94B2E0EB2E00E027E042E186
:102F400069E38091890690918A060E94530AEC01F8
:102F5000892BC1F661E080E795E00E94FE0AEC0152
:102F600025E043E26BE08091890690918A060E94F9
:102F7000530AC82BD92B209729F661E080E795E00A
:102F80000E94FE0AEC01892B09F0BCCF80E795E096
:102F90000E941C09803809F01FC227E040E060E26F
:102FA0008091890690918A060E94530AEC0127E0DD
:102FB00048E061E28091890690918A060E94530A56
:102FC000C82BD92B209709F09DCF10929E06109206
:102FD0009F061092A0061092A10680E795E00E943D
:102FE0001C098038910509F03BCF80E795E00E94ED
:102FF000710BEC01CC24CA94F2E0EF2E04E027E040
:1030000040E76DE18091890690918A060E94530AFB
:10301000C82BD92B209709F075CF80E090E0AAEF5C
:10302000B2E480938F0690939006A0939106B0939C
:1030300092068091A4068111E4C140E050E069ED60
:1030400073E480E795E00E94C30BEC01892B09F043
:1030500059CF80E090E0A9EDB3E480938B06909384
:103060008C06A0938D06B0938E0680E795E00E94B3
:103070001C098038910509F0F3CE80E795E00E94A5
:10308000710BEC01CC24CA9472E0E72E00E020E042
:1030900040E06DE18091890690918A060E94530A72
:1030A000C82BD92B8091890690918A0620919A0687
:1030B00044E0211101C040E04069CC24CA9462E0A0
:1030C000E62E02E027E06EE10E94530AC82BD92BBE
:1030D00000E022E043E061E38091890690918A0656
:1030E0000E94530AC82BD92B27E04AE067E380915E
:1030F000890690918A060E94530AC82BD92B2097E3
:1031000009F000CF89E0809393068091A406811195
:10311000A9C180E795E00E941C098038910509F05B
:103120009FCE80E795E00E94710BEC01CC24CA94FD
:1031300042E0E42E01E023E046E06DE18091890663
:1031400090918A060E94530AC82BD92B209709F028
:10315000D9CE87E08093940680E795E00E94710BBA
:10316000EC0107E027E040E869E080918906909152
:103170008A060E94530AC82BD92B00E026E04FE7AD
:1031800069E08091890690918A060E94530AC82BB3
:10319000D92B22E047E06DE48091890690918A0660
:1031A0000E94530AC82BD92B209709F0ABCE80E799
:1031B00095E00E94710BEC0180E795E00E941C09EC
:1031C0008038910509F078C102E022E040E066E233
:1031D0008091890690918A060E94530A5C0100E062
:1031E00027E043E46CE08091890690918A060E9472
:1031F000530A8A299B29C82BD92B209709F082CE04
:1032000082EC91E00E9442158EEA91E00E94A905AD
:1032100060919E0670919F068091A0069091A106F4
:1032200042E00E94941589EA91E00E94421589E9E2
:1032300091E00E94A90580E795E00E941C09803872
:10324000910509F04BC1C0918906D0918A0620E012
:1032500030E049E554E460918B0670918C068091D2
:103260008D0690918E060E943C2A6AE187FF30C14C
:10327000CE010E94FF08845A990BBC01990F880B5C
:10328000990B0E94432A6B017C0180E795E00E9424
:1032900099094B015C0120E030E0A9010E943C2A21
:1032A00087FF08C0A5019401C701B6010E94F32B56
:1032B0006B017C0142E0C701B6010E94941584E9CC
:1032C00091E00E94421585E891E00E94A90580E7FF
:1032D00095E00E94990942E00E94941581E891E0EE
:1032E0000E94421586E691E00E94A90580E795E0DC
:1032F0000E941C098038910509F035C168E280916F
:10330000890690918A060E94FF088F70C82E880F48
:10331000DD08EE08FF087601DD24CC2469E2809107
:10332000890690918A060E94FF08C82F6AE2809160
:10333000890690918A060E94FF084C2F50E0542F76
:10334000442770E060E0482BCB01BA016C297D294D
:103350008E299F2983FFE2C0806F9F6F9095809593
:10336000709561957F4F8F4F9F4F0E94412A20E0BB
:1033700030E040E85BE40E94A22A20E034E244EF1F
:103380005BE40E94762C6B017C0120E030E04AEF88
:1033900053E460918F067091900680919106909110
:1033A00092060E94762C9B01AC01C701B6010E94D7
:1033B000A22A905842E00E94941582E691E0DF91A3
:1033C000CF910F91FF90EF90DF90CF90BF90AF9093
:1033D0009F908F900C9442158111F8C0CC24CA9410
:1033E000A2E0EA2E00E027E040E065E28091890655
:1033F00090918A060E94530AEC0127E041E066E2C0
:10340000D9CDC0918906D0918A062091930661E0BA
:1034100070E080E090E004C0660F771F881F991F5E
:103420002A95D2F70E94412A20E030E04AEF52E488
:103430000E94762C20E030E040E851E40E94582DB4
:10344000CC24CA94E2E0EE2E03E023E048E087FDBE
:1034500040E066E2CE010E94530AEC01892B09F09C
:1034600051CDEBCDC0918906D0918A0620918F066F
:1034700030919006409191065091920660E070E084
:1034800080E094E40E94762C20E030E040E851E4B3
:103490000E94582DCC24CA9452E0E52E03E023E08C
:1034A00048E087FD40E066E2CE010E94530AEC014D
:1034B000892B09F027CD2DCE892B09F09ECECC2467
:1034C000CA9432E0E32E03E023E040E06DE080CEDA
:1034D000CE010E94FF088D59990BCFCE45E060E0E8
:1034E00080E795E00E94D50D61E180918906909179
:1034F0008A060E94FF08682F70E090E080E00E943A
:10350000432A20E030E040E05FEB0E94A22A6B01FA
:103510007C0180E795E00E94710BCCCE0E94412A8D
:1035200020E030E040E85BE40E94A22A20E034E2A0
:1035300044EF5BE40E94762C6B017C0120E030E0DC
:103540004AEF53E460918F06709190068091910646
:10355000909192060E94762C9B01AC01C701B601A6
:103560000E94A22A27CF892B61F56DE180918906FF
:1035700090918A060E94FF08C82FD0E0DC2FCC274C
:103580006EE18091890690918A060E94FF08C82BFF
:10359000D7FF0DC0662777276C1B7D0B90E080E07E
:1035A0000E94412A20E034E244E752E400CFBE0109
:1035B00090E080E00E94412A20E034E244E752E4B7
:1035C000CFCF60E070E080E89FEBF4CECFEFDFEF8D
:1035D00099CC0E94722F0F931F93CF93DF93EC012E
:1035E00088819981009759F02A813B8126173707F6
:1035F00030F081E0DF91CF911F910F9108958B0101
:103600006F5F7F4F0E94B52E009759F09983888392
:103610001B830A832C813D81232B59F7FC011082E7
:10362000E8CF80E0E7CFEF92FF920F931F93CF9305
:10363000DF936115710541F480E0DF91CF911F9117
:103640000F91FF90EF90089541155105B1F07B0166
:10365000EC010C811D81040F151FB8010E94EB1AAB
:10366000882351F3288139818C819D81B701820F94
:10367000931F0E94802F1D830C8381E0DECFCF93A8
:10368000DF93EC0188819981009711F00E942C2E24
:10369000198218821D821C821B821A82DF91CF91AF
:1036A0000895CF93DF93EC01FB0101900020E9F72F
:1036B0003197AF01461B570B0E94131B811103C0AA
:1036C000CE010E943F1BCE01DF91CF910895CF9391
:1036D000DF93EC01FB0144815581608171810E947F
:1036E000131B811103C0CE010E943F1BCE01DF914D
:1036F000CF910895EF92FF920F931F93CF93DF9393
:10370000EC017B018A01BA010E94EB1A81110BC006
:10371000CE010E943F1BCE01DF91CF911F910F91EF
:10372000FF90EF9008951D830C83B70188819981E4
:103730000E94802FF0CFEF92FF920F931F93CF93B1
:10374000DF93CDB7DEB7A1970FB6F894DEBF0FBEFB
:10375000CDBF7C01CB01BA01F70111821082138227
:103760001282158214828E010F5F1F4F22E044E007
:103770000E94B2270097C9F0FC0101900020E9F7F0
:103780003197AF01481B590BBC01C7010E947A1B3E
:10379000A1960FB6F894DEBF0FBECDBFDF91CF91DB
:1037A0001F910F91FF90EF900895C7010E943F1B5A
:1037B000EFCFEF92FF920F931F93CF93DF93CDB78D
:1037C000DEB762970FB6F894DEBF0FBECDBF8C0197
:1037D000CB01F801118210821382128215821482A9
:1037E0004AE09E012F5F3F4F7901B9010E94D02727
:1037F000F70101900020E9F73197AF014E195F09F9
:10380000B701C8010E947A1B62960FB6F894DEBF1A
:103810000FBECDBFDF91CF911F910F91FF90EF9021
:103820000895FB01DC0111961C921E9213961C92C6
:103830001E92129715961C921E9214978617970740
:1038400049F0608171816115710521F044815581D4
:103850000C947A1B0895FC0180819181009711F0EE
:103860000C942C2E08952F923F924F925F926F925C
:103870007F928F929F92AF92BF92CF92DF92EF9200
:10388000FF920F931F93CF93DF93CDB7DEB72C97A3
:103890000FB6F894DEBF0FBECDBF1C018B010E9496
:1038A0001C09803809F029C1F101ED5DFE4F20812E
:1038B00061E070E080E090E004C0660F771F881F31
:1038C000991F2A95D2F70E94412AF101E15EFE4F2D
:1038D00020813181428153810E94762C4B015C0111
:1038E00020E030E040E851E40E94582D87FDFBC005
:1038F00080E090E0A0E8BFE389839A83AB83BC8338
:10390000710197EEE91A9EEFF90A6DE1D7018D91E9
:103910009C910E94FF088A876EE1F7018081918166
:103920000E94FF08898760E2D7018D919C910E94D7
:10393000FF08D82E61E2F701808191810E94FF0883
:103940007D2D682F072E000C880B990B0E94432AAF
:103950006D837E838F839887F101ED5DFE4F6081DB
:1039600070E090E080E00E94412A20E030E040E8F2
:1039700050E40E94A22A6B017C01B80190E080E033
:103980000E94412A20E030E040E051E40E94A22A57
:10399000A70196010E94F22B20E030E040EE51E4B6
:1039A0000E94F32B2B013C01F985F2FBFF27F0F974
:1039B000FB871C862B853C85B901330F880B990B3F
:1039C0000E94432A20E030E040E851E40E94A22A0D
:1039D0009B01AC01C301B2010E94F32B2B013C01FE
:1039E0006A856170062E000C770B880B990B0E947C
:1039F000432A20E030E040EA51E40E94A22A9B01E1
:103A0000AC01C301B2010E94F22B2B013C0120E06A
:103A100030E040E051E469817A818B819C810E9491
:103A2000A22A9B01AC01C701B6010E94F22B9B01A7
:103A3000AC01C301B2010E94762C0E945F2C6B0185
:103A40007C01F101EC5DFE4F608170E090E080E070
:103A50000E94412AA70196010E94A22A6B017C01C3
:103A600020E030E0A9010E94582D18160CF040C04B
:103A700020E030E040E051E4C701B6010E94F32BA2
:103A80002D813E814F8158850E94F32B20E030E04C
:103A900048E850E40E94F32BA50194010E94A22A59
:103AA0000E945F2C20E030E04AE754E40E94A22A02
:103AB0000E94E82C2C960FB6F894DEBF0FBECDBF47
:103AC000DF91CF911F910F91FF90EF90DF90CF90FA
:103AD000BF90AF909F908F907F906F905F904F902E
:103AE0003F902F90089519821A821B821C8208CF62
:103AF00060E070E080E091E4C3CF811198C0C10123
:103B0000875E9E4F9A83898365E2DC018D919C914B
:103B10000E94FF08F82E66E2E981FA818081918196
:103B20000E94FF087F2D682F072E000C880B990B31
:103B30000E94432A20E030E040E051E40E94A22AA3
:103B40002B013C0167E2A981BA818D919C910E9471
:103B5000FF08682F6770062E000C770B6F5F7F4F92
:103B6000072E000C880B990B0E94432A20E030E0BE
:103B700040E051E40E94A22A4B015C0160E3E9812C
:103B8000FA81808191810E94FF08C12CD12C76019D
:103B900084FF06C0C12CD12C90E8E92E91E4F92EC7
:103BA000F101ED5CFE4F80810F5F1F4F811109C055
:103BB00062E3A981BA818D919C910E94FF08082F30
:103BC00010E0A5019401C701B6010E94F32BA301E7
:103BD00092010E94F32B6B017C0183E0000F111F07
:103BE0008A95E1F7B80190E080E00E94412A9B01AC
:103BF000AC01C701B6010E94F32B6B017C01F101FE
:103C0000EB5DFE4F20E030E04AE754E460817181D3
:103C1000828193810E94A22A9B01AC01C701B60157
:103C20000E94762C20E034E244E759E43FCF6FEF66
:103C30007FEFCB013FCF4F925F926F927F928F9237
:103C40009F92AF92BF92CF92DF92EF92FF920F932B
:103C50001F93CF93DF93EC017B01D42EC52E61E03F
:103C60000E94FE0A009761F5CE010E941C0980386F
:103C70009105B9F546E06D2DCE010E94D50D009756
:103C8000F9F48E01075E1E4FF80180819181FC01DD
:103C900061A90E942208811163C0F801808191818D
:103CA0000E941A08F80180819181FC0163A90E9499
:103CB0002208882349F3CE010E9427098AEF9FEF4B
:103CC000DF91CF911F910F91FF90EF90DF90CF90F8
:103CD000BF90AF909F908F907F906F905F904F902C
:103CE0000895892BE9F56D2D7C2DCE010E94331CA2
:103CF0004B015C0145E06D2DCE010E94D50D009772
:103D0000F9F68E01075E1E4FF801808191810E94B5
:103D100005082B013C01A5E0B0E0A50194010E943B
:103D20007F2B4B015C01F80180819181FC0161A92D
:103D30000E942208811114C0F801808191810E94A3
:103D40001A08F801808191810E940508641975099B
:103D50008609970986169706A806B90620F7ABCFFD
:103D6000E881F9810084F185E02D4D2D5C2DB701AE
:103D7000CE01DF91CF911F910F91FF90EF90DF90D7
:103D8000CF90BF90AF909F908F907F906F905F90FB
:103D90004F9009942F923F924F925F926F927F9231
:103DA0008F929F92AF92BF92CF92DF92EF92FF924B
:103DB0000F931F93CF93DF93EC017B018A01D22EE7
:103DC00061E00E94FE0A009709F054C0CE010E94F3
:103DD0001C098038910509F060C0B801CE010E942D
:103DE000331C2B013C01E881F9810680F781E02D2D
:103DF0002D2DA801B701CE0109950097D9F51E0117
:103E000027EE221A2EEF320AF101808191810E9461
:103E100005086B017C01F10180819181FC0161A9A0
:103E20000E94220881118FC0F101808191810E943E
:103E30001A08F101808191810E9405084B015C0103
:103E4000C301B2010E94412A20E030E040EC5FE370
:103E50000E94A22A0E94E82C8C189D08AE08BF0878
:103E6000681579058A059B05B0F6CE010E942709E1
:103E70008BEF9FEFDF91CF911F910F91FF90EF900C
:103E8000DF90CF90BF90AF909F908F907F906F907A
:103E90005F904F903F902F900895892B09F0A3C019
:103EA000B801CE010E94331C4B015C01E881F9810D
:103EB0000680F781E02D2D2DA801B701CE010995CF
:103EC0000097C1F63E01F7EE6F1AFEEF7F0AF3018D
:103ED000808191810E9405086B017C01A5E0B0E022
:103EE000A50194010E947F2B4B015C01F8E88F0E25
:103EF000F3E19F1EA11CB11CF30180819181FC01A3
:103F000061A90E94220881111EC0F3018081918164
:103F10000E941A08F301808191810E9405086C19A2
:103F20007D098E099F0986169706A806B90620F70F
:103F3000CE010E942709E881F9810280F381E02DFA
:103F4000CE01099595CFFE01E75EFE4F80819181FC
:103F50000E9405084B015C011E01F2ED2F1AFEEFD5
:103F60003F0AB80190E080E00E94412A20E030E062
:103F700040E051E40E94A22A2B013C01C501B4019A
:103F80006C197D098E099F090E94412A20E034E2C4
:103F900044E759E40E94762C9B01AC01C301B201B5
:103FA0000E94762CF1016083718382839383CE011A
:103FB0000E942709E881F9810280F381E02DCE017A
:103FC000DF91CF911F910F91FF90EF90DF90CF90F5
:103FD000BF90AF909F908F907F906F905F904F9029
:103FE0003F902F9009948FEF9FEF44CFBF92CF92D5
:103FF000DF92EF92FF920F931F93CF93DF93CDB792
:10400000DEB7E2970FB6F894DEBF0FBECDBF61E01A
:1040100085E00E94360661E084E00E94360665E095
:1040200070E080E090E00E949C0661E089E00E94E0
:10403000580180E48093800089E08093810081E0D2
:1040400090E090938900809388000E94B01662E30C
:1040500070E080E090E00E949C0682E480937C0007
:1040600083E880937A0062E370E080E090E00E9451
:104070009C0603E010E064E8C62E6EEFD62EEE2418
:10408000EA94FE2C80917A00806480937A006AE042
:1040900070E080E090E00E949C0680917A0086FDAE
:1040A00072C0209178008091790090E0982F882745
:1040B000280F392F311D3093840220938302032E61
:1040C000000C440B550B2057334041095109A4E61D
:1040D000B0E00E947F2BA70196010E94602B3093D5
:1040E00082022093810280917A00806480937A001A
:1040F0008EE691E00E9435158091830290918402B2
:104100000E947E1683E791E00E943515809181021E
:10411000909182020E947E1680918002811133C0AC
:104120000E948E14811104C08DE791E00E947016E8
:10413000CE0101960E942513B82E8823C1F08D81EF
:104140009E81AF81B88549815A816B817C81409382
:10415000720250937302609374027093750280939D
:104160006E0290936F02A0937002B0937102CE0121
:1041700001960E942513811104C089ED91E00E94EF
:104180004215B092800280917A00806180937A001B
:1041900062E370E080E090E00E949C06015011090B
:1041A00009F070CF80918102909182024F97A4F420
:1041B00080917E0290917F02892B71F481EB91E0D6
:1041C0000E94351581E090E090937D0280937C02FF
:1041D00090937F0280937E0280918102909182026F
:1041E0008035910594F080917E0290917F02019735
:1041F00061F482EC91E00E94351510927D021092DC
:104200007C0210927F0210927E0283EC80937C00ED
:1042100062E370E080E090E00E949C0603E010E022
:104220004AE0E42EF12C80917A00806480937A0039
:104230006AE070E080E090E00E949C0680917A0045
:1042400086FD41C02091780090917900892F90E0FF
:10425000982F8827820F911D90937B0280937A027A
:10426000B7010E94762D7093790260937802809155
:104270007A00806480937A008AEF91E00E9435157D
:1042800080917A0290917B020E947E1660917A0260
:1042900070917B02072E000C880B990B0E94432A19
:1042A00023E333E343E550E40E94A22A20E030E018
:1042B00040E85AE30E94A22A42E00E94941584ED4D
:1042C00091E00E94701680917A00806180937A005C
:1042D00062E370E080E090E00E949C0601501109CA
:1042E00009F0A1CF6091780270917902CE01019618
:1042F0000E94D91B60917C0270917D02CE010996CB
:104300000E94D91B40917202509173026091740215
:1043100070917502CE010F960E949B1B40916E0218
:1043200050916F026091700270917102CE014596BA
:104330000E949B1B6091810270918202CE014B967C
:104340000E94D91B6091760270917702CE0181960E
:104350000E94D91B18A61FA21AA619A61CA61BA646
:1043600047E050E066ED71E0CE0187960E947A1B2F
:10437000BE016F5D7F4FCE0187960E94671B6EED79
:1043800071E00E94511BBE01655E7F4F0E94671B5A
:1043900066EE71E00E94511BBE016B5E7F4F0E9472
:1043A000671B6BEE71E00E94511BBE01615F7F4F86
:1043B0000E94671B60EF71E00E94511BBE01675FA6
:1043C0007F4F0E94671B69EF71E00E94511BBE0185
:1043D0006F5F7F4F0E94671B6FEF71E00E94511B60
:1043E000BC01CE018D960E94111CCE0187960E94C1
:1043F0002B1CCE0181960E942B1CCE014B960E9455
:104400002B1CCE0145960E942B1CCE010F960E94BC
:104410002B1CCE0109960E942B1CCE0101960E94F6
:104420002B1C66EA76E0CE0101960E94111C61E029
:1044300072E0CE0101960E94511BBE01635D7F4F69
:104440000E94671BBC01CE0109960E94111CCE017F
:1044500001960E942B1C8FE591E00E9435154D8539
:104460005E8569857A858EE593E00E94AE048FE5CE
:1044700091E00E94351569857A85FB010190002045
:10448000E9F73197AF01461B570B20E080E795E035
:104490000E94CA1ECE0109960E942B1CCE018D9649
:1044A0000E942B1C68EE73E080E090E00E949C0666
:1044B00040E060E08091890690918A060E94690838
:1044C00060E080E795E00E94FE0A8091760290917C
:1044D0007702019690937702809376021092800281
:1044E00060E085E00E94360664E670E080E090E0DF
:1044F0000E949C06E2960FB6F894DEBF0FBECDBFB9
:10450000DF91CF911F910F91FF90EF90DF90CF90AF
:10451000BF90089585ED8093BC0080913803909101
:104520003903A0913A03B0913B030796A11DB11D39
:1045300023E0B695A795979587952A95D1F7209171
:10454000BC0024FD03C01092360308954091380347
:104550005091390360913A0370913B03452B462BF0
:10456000472B69F30097A105B10541F025E32A9592
:10457000F1F700000197A109B109E1CF809137035C
:104580000C943E111F920F920FB60F9211242F938D
:104590003F934F935F936F937F938F939F93AF93CB
:1045A000BF93EF93FF938091E2029091E302A09179
:1045B000E402B091E502892B8A2B8B2BD1F19091EB
:1045C000E102E091DF02F091E0028081892780839F
:1045D0008091E2029091E302A091E402B091E502A1
:1045E000181619061A061B069CF48091E202909197
:1045F000E302A091E402B091E5020197A109B1099B
:104600008093E2029093E302A093E402B093E50268
:10461000FF91EF91BF91AF919F918F917F916F919A
:104620005F914F913F912F910F900FBE0F901F9070
:104630001895809104010E946406EACF1F920F92A0
:104640000FB60F9211242F933F934F935F936F9365
:104650007F938F939F93AF93BF93EF93FF938EE5D9
:1046600093E00E943805FF91EF91BF91AF919F9128
:104670008F917F916F915F914F913F912F910F900B
:104680000FBE0F901F9018951F920F920FB60F92AA
:1046900011242F935F936F937F938F939F93AF9387
:1046A000BF93EF93FF93E0916E03F0916F038081CE
:1046B000E0917403F091750382FD24C02081809104
:1046C000770390E001966AEF70E00E94622D90916E
:1046D0007803981741F0E0917703F0E0E25AFC4F3D
:1046E000258F80937703FF91EF91BF91AF919F91B9
:1046F0008F917F916F915F912F910F900FBE0F90CF
:104700001F9018958081EFCF1F920F920FB60F92D6
:1047100011242F933F938F939F93AF93BF938091D7
:10472000CD029091CE02A091CF02B091D0023091F3
:10473000CC0223E0230F2D3758F50196A11DB11DA2
:104740002093CC028093CD029093CE02A093CF020F
:10475000B093D0028091D1029091D202A091D30265
:10476000B091D4020196A11DB11D8093D102909306
:10477000D202A093D302B093D402BF91AF919F9184
:104780008F913F912F910F900FBE0F901F90189512
:1047900026E8230F0296A11DB11DD2CF1F920F92C2
:1047A0000FB60F9211242F933F934F935F936F9304
:1047B0007F938F939F93AF93BF93EF93FF93E0917A
:1047C0000201F09103010995FF91EF91BF91AF9123
:1047D0009F918F917F916F915F914F913F912F9119
:1047E0000F900FBE0F901F9018951F920F920FB64B
:1047F0000F9211242F933F934F935F936F937F9367
:104800008F939F93AF93BF93EF93FF93E09100013A
:10481000F09101010995FF91EF91BF91AF919F91A7
:104820008F917F916F915F914F913F912F910F9059
:104830000FBE0F901F9018951F920F920FB60F92F8
:1048400011242F933F934F935F936F937F938F9395
:104850009F93AF93BF93EF93FF938091B900887FAD
:10486000803609F44AC0F0F5883209F4A7C018F57B
:10487000803109F49BC0B8F4882309F4F9C088306A
:1048800009F494C0FF91EF91BF91AF919F918F91E7
:104890007F916F915F914F913F912F910F900FBE3C
:1048A0000F901F901895883109F488C0803251F715
:1048B0008093340314C0803409F49DC040F48033E5
:1048C000B9F38833F9F68093340385ECB0C08035B2
:1048D00009F485C0883509F496C0883499F60E9499
:1048E0008A22D0CF883909F48CC038F5883729F06E
:1048F00050F4883611F0803729F683E08093360330
:104900001092C80257C0883809F47BC0803919F06A
:10491000803809F0B7CF8091C802803208F071C0AA
:10492000E091C80281E08E0F8093C8028091BB00A5
:10493000F0E0E855FD4F80833DC0803B39F0E0F466
:10494000803A09F479C0883A09F09CCF84E08093DA
:1049500036031092A7021092A602E091EA02F091AB
:10496000EB0209958091A60281110FC081E080932E
:10497000A6021092860209C0803C09F4A6CF883CAA
:1049800009F4A3CF883B09F07DCFE091A70281E035
:104990008E0F8093A702F0E0EA57FD4F808180934D
:1049A000BB009091A7028091A60229C0809131039B
:1049B0008093BB0085EC8093BC0064CF909133035F
:1049C00080913203981758F5E091330381E08E0F00
:1049D00080933303F0E0E05FFC4F8081E9CFE0910A
:1049E000330381E08E0F809333038091BB00F0E0AE
:1049F000E05FFC4F808390913303809132039817DE
:104A0000C8F285E8D8CFE091330381E08E0F809320
:104A100033038091BB00F0E0E05FFC4F8083809126
:104A2000350381115CCF81E08093300384EA809369
:104A3000BC001092360326CF85EC8093BC00109208
:104A400036038091C802803230F4E091C802F0E071
:104A5000E855FD4F10826091C80270E0E091E802D5
:104A6000F091E90288EA92E009951092C8020ACF13
:104A70001092340334CF1F920F920FB60F9211246D
:104A80002F933F934F935F936F937F938F939F9356
:104A9000AF93BF93EF93FF9381E692E00E943515A9
:104AA0008091E6029091E7020E947E1664E670E033
:104AB00080E090E00E949C068091E6029091E702DF
:104AC00001969093E7028093E6020FB6F894A895BA
:104AD00080916000886180936000109260000FBE3A
:104AE000FF91EF91BF91AF919F918F917F916F91C6
:104AF0005F914F913F912F910F900FBE0F901F909C
:104B00001895CF93DF93CDB7DEB72C970FB6F894F7
:104B1000DEBF0FBECDBFEEE5F3E01382128288EE5A
:104B200093E0A0E0B0E084839583A683B7832FE071
:104B300031E03183208325EC30E03587248724EC75
:104B400030E03787268720EC30E0318B208B21EC5A
:104B500030E0338B228B22EC30E0358B248B26EC3B
:104B600030E0378B268B118E128E138E148EECEA6A
:104B7000F6E01382128284839583A683B78381E251
:104B800091E091838083F093B906E093B8061A828E
:104B900019821C821B821E821D8243E050E069E064
:104BA00072E0CE0101960E947A1BBE016F5F7F4FBB
:104BB000CE0107960E94111C6DE072E0CE010796AF
:104BC0000E94511BBC0186EA96E00E94111CCE0196
:104BD00007960E942B1CCE0101960E942B1C8CE391
:104BE00090E00E94902DFC018BE591E09183808301
:104BF000128290E893838AE080AB82E081AB84E00C
:104C000082AB86E083AB81E586AB81E087AB11AEFA
:104C10002FEF22AF23AF2FE635E035AB24AB80AFCB
:104C200028E531E0358324832DE036E03187208785
:104C300026E336E03783268328E432E03387228771
:104C400024E636E03587248722EE36E0378726874C
:104C50002FEC36E0318B208B2BE936E0338B228B27
:104C60002CE936E0358B248B20E936E0378B268B18
:104C700024E931E0318F208F20EA31E0338F228F19
:104C80002FEC37E0358F248F178E168E25EC31E010
:104C900031A320A313A212A225EE31E035A324A351
:104CA00017A216A226E032E031A720A713A612A66B
:104CB00026E232E035A724A717A616A6A0E7B5E09E
:104CC00040E054E264E772E412964D935D936D9375
:104CD0007C9315972FEF30E017963C932E93169701
:104CE00018961C92189719961C92199710928B0679
:104CF00010928C0610928D0610928E0610928F06DE
:104D000010929006109291061092920610929306BD
:104D1000109294061092950610929606109297069D
:104D2000109298061092990610929A0680939B060C
:104D300010929D0610929C0610929E0610929F065D
:104D40001092A0061092A1061092A2069093A306BC
:104D5000F0938A06E093890623E331E02D933C9398
:104D60008093A4061092A5062C960FB6F894DEBF89
:104D70000FBECDBFDF91CF910895789484B5826046
:104D800084BD84B5816084BD85B5826085BD85B5EF
:104D9000816085BD80916E00816080936E0010926D
:104DA00081008091810082608093810080918100E8
:104DB0008160809381008091800081608093800079
:104DC0008091B10084608093B1008091B0008160D7
:104DD0008093B00080917A00846080937A00809103
:104DE0007A00826080937A0080917A00816080935B
:104DF0007A0080917A00806880937A001092C100D6
:104E0000E0916E03F0916F0382E08083E0916A038A
:104E1000F0916B031082E0916C03F0916D0380E1DF
:104E2000808310927603E0917203F091730386E021
:104E30008083E0917003F0917103808180618083B1
:104E4000E0917003F0917103808188608083E0912C
:104E50007003F0917103808180688083E09170031A
:104E6000F091710380818F7D808384E192E00E94C4
:104E7000701664E670E080E090E00E949C0661E0BD
:104E800089E00E94580180E48093800089E080934B
:104E9000810081E090E0909389008093880061E038
:104EA00084E00E94580161E084E00E94360664E6D6
:104EB00070E080E090E00E949C0661E085E00E9446
:104EC000580161E085E00E94360664E670E080E00B
:104ED00090E00E949C060E94B0160E948E148111E0
:104EE0003AC08DE791E00E9470160E94F61F85E39C
:104EF00092E00E9470160E94FA11C0E0D0E00FB656
:104F0000F894A89580916000886180936000109269
:104F100060000FBE8091E6029091E702029784F054
:104F200089E492E00E9470160E94F61F0E94E81128
:104F300086E592E00E9470161092E7021092E60257
:104F40000E94FA112097D9F20E9424058823B9F211
:104F50000E940000D4CF80E292E0C5CF86EA96E0BE
:104F60000C942B1CEF920F931F93CF93DF93E801C8
:104F700034E047FD34E1042E000C550B57FF03C00D
:104F8000519541955109E32E022F242FAE010E9425
:104F9000F527CE01DF91CF911F910F91EF900895EA
:104FA000BB274A3031F4992322F4BDE290958195D4
:104FB0009F4F0C94DC27BB27FB015527AA27880F9E
:104FC000991FAA1FA41710F0A41B83955051B9F77D
:104FD000A05DAA3308F0A95DA193009779F7B111FC
:104FE000B1931192CB010C942C2AA9E0B0E0EBEF25
:104FF000F7E20C94902B6A01F22EB02E102FFBE3F7
:10500000AF2EA01608F41BE31F5F012F27E0AE01AF
:105010004F5F5F4F0E945429BC018981982F99707E
:10502000913009F43FC09BE2E1FC04C09E2D9170D9
:10503000E0FC3AC05E2D5071E82FE87083FF46C057
:1050400084E0911101C083E0EF2DE81B8F1508F07B
:10505000E0E0D6018E2F20E2552351F1992329F06B
:10506000D6019C93C60101966C0196012D5F3F4FBE
:10507000E2FE24C08EE4D6018C9391E411969C93B9
:10508000119712968C93D9018E2F90E281111BC03B
:10509000E20FF32FF11D10828EEF9FEF2996ECE0C7
:1050A0000C94AC2B9DE2C6CF90E2C4CF2D938150DF
:1050B0008111FCCFCE0ED11CE0E0D0CF8EE6D60120
:1050C0008C9391E6DBCF9D938150E0CF482F4470C5
:1050D00082FF3DC084E0911101C083E08F1510F480
:1050E000EF2DE81BD6018E2F20E2552309F19923DD
:1050F00029F0D6019C93C60101966C0196012D5FA3
:105100003F4FE2FE1BC089E4D6018C938EE41196DA
:105110008C93119786E412968C93D9018E2F90E28E
:10512000882309F4B5CF9D938150FACF2D938150F8
:105130008111FCCFCE0ED11CE0E0D9CF89E6D6019B
:105140008C938EE611968C93119786E6E4CF9B01A3
:1051500077FF02C030E020E0A1E0B0E0911102C092
:10516000B0E0A0E0F9013196AE0FBF1F8B2C912C5F
:10517000BB2009F461C05401EFEFAE1ABE0AAA0DBC
:10518000BB1DFA161B0619F014F04F2D4A1B5111C6
:1051900088C0E3FC59C07601A42FB0E2A1114FC032
:1051A000C40ED11C992309F45BC040E0D6011196CE
:1051B000F60190836D01552309F448C0012F060FB5
:1051C0009A81582F507184FF03C0913309F4015024
:1051D00010160CF047C0093008F008E0EEE2FE2E91
:1051E0005B01A01AB10885019194819491082F3F29
:1051F000320729F4D601FC92F60131966F0162174D
:10520000730794F1021713077CF5DB01A21BB30BA4
:10521000AA24A394B12CAC0EBD1EAA0DBB1D1196E1
:105220008C9121503109D601119628153905F4F0D9
:10523000F60180836D01DBCFB12CA12CA0CFF7014B
:10524000B1937F01A150AACF9111B0CFD601942F75
:1052500050E302C05D9391509111FCCFC40ED11C5C
:1052600040E0ACCF01E0BACF80E3DBCF6217730739
:1052700031F4963388F4953311F4552369F0F6012F
:105280008083FD01842F90E2811108C0A40FB11D1D
:105290001C9290E080E002CF81E3F1CF91938150A6
:1052A000F3CF911183CF8ACF283008F027E033273E
:1052B000DA01990F311D87FD916000966105710536
:1052C00039F432602E5F3D9330E32A95E1F708957B
:1052D0009F3F30F080387105610509F03C5F3C5F0D
:1052E0003D93913008F08068911DDF93CF931F9319
:1052F0000F93FF92EF92192F987F9695E92F96952D
:105300009695E90FFF27EE53FF4F99273327EE2499
:10531000FF24A701E70105900894079428F4360FAD
:10532000E71EF81E491F511D660F771F881F991F22
:105330000694A1F70590079428F4E70EF81E491F7C
:10534000561FC11D770F881F991F661F0694A1F76E
:105350000590079428F4F80E491F561FC71FD11D4A
:10536000880F991F661F771F0694A1F70590079471
:1053700020F4490F561FC71FD81F990F661F771FAC
:10538000881F0694A9F784911095177041F0D6955F
:10539000C79557954795F794E7941A95C1F7E8E6AE
:1053A000F0E068941590159135916591959105906F
:1053B0007FE27395E118F10A430B560BC90BD00934
:1053C000C0F7E10CF11E431F561FC91FD01D7EF40C
:1053D000703311F48A95E6CFE894015030F0080F4D
:1053E0000AF40027021708F4202F2395022F7A339E
:1053F00028F079E37D932A95E9F710C07D932A95EB
:1054000089F6069497956795379517951794E1183F
:10541000F10A430B560BC90BD00998F023957E91E6
:1054200073957A3308F070E37C932013B8F77E917C
:1054300070617D9330F0839571E37D9370E32A95DD
:10544000E1F71124EF90FF900F911F91CF91DF9121
:10545000992787FD90950895DC01FC01672F7191D4
:105460007723E1F7329704C07C916D93708362914A
:10547000AE17BF07C8F308950E947E2A08F481E0A2
:105480000895E89409C097FB3EF490958095709537
:1054900061957F4F8F4F9F4F9923A9F0F92F96E980
:1054A000BB279395F695879577956795B795F111F5
:1054B000F8CFFAF4BB0F11F460FF1BC06F5F7F4F92
:1054C0008F4F9F4F16C0882311F096E911C07723A4
:1054D00021F09EE8872F762F05C0662371F096E8AD
:1054E000862F70E060E02AF09A95660F771F881F7C
:1054F000DAF7880F9695879597F90895990F000820
:10550000550FAA0BE0E8FEEF16161706E807F90795
:10551000C0F012161306E407F50798F0621B730B30
:10552000840B950B39F40A2661F0232B242B252BB1
:1055300021F408950A2609F4A140A6958FEF811D54
:10554000811D08950E94B52A0C94262B0E94182BC9
:1055500038F00E941F2B20F0952311F00C940F2B94
:105560000C94152B11240C945A2B0E94372B70F39A
:10557000959FC1F3950F50E0551F629FF001729FF8
:10558000BB27F00DB11D639FAA27F00DB11DAA1F07
:10559000649F6627B00DA11D661F829F2227B00D54
:1055A000A11D621F739FB00DA11D621F839FA00DDF
:1055B000611D221F749F3327A00D611D231F849F2F
:1055C000600D211D822F762F6A2F11249F57504086
:1055D0009AF0F1F088234AF0EE0FFF1FBB1F661F01
:1055E000771F881F91505040A9F79E3F510580F0CA
:1055F0000C940F2B0C945A2B5F3FE4F3983ED4F39A
:10560000869577956795B795F795E7959F5FC1F76D
:10561000FE2B880F911D9695879597F9089597F918
:105620009F6780E870E060E008959FEF80EC089548
:1056300000240A9416161706180609060895002471
:105640000A9412161306140605060895092E0394EB
:10565000000C11F4882352F0BB0F40F4BF2B11F45F
:1056600060FF04C06F5F7F4F8F4F9F4F089557FDBE
:105670009058440F551F59F05F3F71F04795880FC0
:1056800097FB991F61F09F3F79F087950895121657
:1056900013061406551FF2CF4695F1DF08C0161603
:1056A00017061806991FF1CF8695710561050894B4
:1056B0000895E894BB2766277727CB0197F90895CB
:1056C000052E97FB1EF400940E94772B57FD07D000
:1056D0000E94C12B07FC03D04EF40C94772B5095FD
:1056E0004095309521953F4F4F4F5F4F08959095CE
:1056F0008095709561957F4F8F4F9F4F08950E94C1
:10570000E32BA59F900DB49F900DA49F800D911D3C
:10571000112408952F923F924F925F926F927F9241
:105720008F929F92AF92BF92CF92DF92EF92FF92B1
:105730000F931F93CF93DF93CDB7DEB7CA1BDB0B5D
:105740000FB6F894DEBF0FBECDBF09942A88398802
:1057500048885F846E847D848C849B84AA84B98409
:10576000C884DF80EE80FD800C811B81AA81B98115
:10577000CE0FD11D0FB6F894DEBF0FBECDBFED0129
:105780000895A1E21A2EAA1BBB1BFD010DC0AA1F82
:10579000BB1FEE1FFF1FA217B307E407F50720F09A
:1057A000A21BB30BE40BF50B661F771F881F991F15
:1057B0001A9469F760957095809590959B01AC015E
:1057C000BD01CF010895A29FB001B39FC001A39F67
:1057D000700D811D1124911DB29F700D811D11242A
:1057E000911D08955058BB27AA270E940A2C0C949B
:1057F000262B0E94182B38F00E941F2B20F039F422
:105800009F3F19F426F40C94152B0EF4E095E7FB5A
:105810000C940F2BE92F0E94372B58F3BA1762070D
:1058200073078407950720F079F4A6F50C94592B9B
:105830000EF4E0950B2EBA2FA02D0B01B9019001AB
:105840000C01CA01A0011124FF27591B99F0593FEF
:1058500050F4503E68F11A16F040A22F232F342F37
:105860004427585FF3CF469537952795A795F04085
:105870005395C9F77EF41F16BA0B620B730B840B9A
:10588000BAF09150A1F0FF0FBB1F661F771F881F52
:10589000C2F70EC0BA0F621F731F841F48F48795AA
:1058A00077956795B795F7959E3F08F0B0CF93959C
:1058B000880F08F09927EE0F9795879508950E9415
:1058C000402D90F09F3748F4911116F40C945A2B08
:1058D00060E070E080E89FE3089526F01B16611DEC
:1058E000711D811D0C94172D0C94322D0E948A2C51
:1058F0000C94262B0E941F2B58F00E94182B40F06E
:1059000029F45F3F29F00C940F2B51110C945A2B62
:105910000C94152B0E94372B68F39923B1F3552370
:1059200091F3951B550BBB27AA27621773078407B2
:1059300038F09F5F5F4F220F331F441FAA1FA9F348
:1059400035D00E2E3AF0E0E832D091505040E69536
:10595000001CCAF72BD0FE2F29D0660F771F881F97
:10596000BB1F261737074807AB07B0E809F0BB0B8A
:10597000802DBF01FF2793585F4F3AF09E3F51059E
:1059800078F00C940F2B0C945A2B5F3FE4F3983E65
:10599000D4F3869577956795B795F7959F5FC9F787
:1059A000880F911D9695879597F90895E1E0660F08
:1059B000771F881FBB1F621773078407BA0720F081
:1059C000621B730B840BBA0BEE1F88F7E0950895EA
:1059D0000E943F2B88F09F5798F0B92F9927B75115
:1059E000B0F0E1F0660F771F881F991F1AF0BA9583
:1059F000C9F714C0B13091F00E94592BB1E008955D
:105A00000C94592B672F782F8827B85F39F0B93F4E
:105A1000CCF3869577956795B395D9F73EF4909535
:105A20008095709561957F4F8F4F9F4F0895882384
:105A300071F4772321F09850872B762F07C06623C7
:105A400011F499270DC09051862B70E060E02AF088
:105A50009A95660F771F881FDAF7880F96958795B6
:105A600097F908959F3F31F0915020F487957795ED
:105A70006795B795880F911D9695879597F9089525
:105A80000E943F2BA0F0BEE7B91788F4BB279F38D0
:105A900060F41616B11D672F782F8827985FF7CF0F
:105AA000869577956795B11D93959639C8F30895B6
:105AB0000E947E2A08F48FEF08950E947E2A880BA8
:105AC000990B0895AA1BBB1B51E107C0AA1FBB1F5E
:105AD000A617B70710F0A61BB70B881F991F5A957A
