:020000040000FA
:100000000C94C0000C94CB1C0C94A41C0C94E80021
:100010000C94E8000C94E8000C94F21C0C94981BCF
:100020000C94E8000C94E8000C94E8000C94E800B0
:100030000C94E8000C94E8000C94E8000C94E800A0
:100040000C945A1C0C94E8000C941A1C0C94F41B8D
:100050000C94E8000C94E8000C94E8000C94E80080
:100060000C94E8000C94E8006661696C65642C20CF
:10007000636F64652000435243206572726F722182
:100080000074696D656F7574210020487A005B53B8
:1000900058313237385D204672657175656E637907
:1000A000206572726F723A0900206442005B5358F7
:1000B000313237385D20534E523A09090900206425
:1000C000426D005B5358313237385D2052535349EB
:1000D0003A090909005B5358313237385D204461D1
:1000E00074613A09090900737563636573732100CC
:1000F00000000000240027002A0000000000230068
:100100002600290000000008000201000003040787
:1001100000000000000000000102040810204080E0
:100120000102040810200102040810200000000051
:10013000250028002B000404040404040404020223
:10014000020202020303030303030220627073002E
:100150005B5358313237385D204461746172617489
:10016000653A0900537563636573732100466169DD
:100170006C65642C20636F6465200000381D1822B4
:1001800011241FBECFEFD8E0DEBFCDBF25E0ACE02D
:10019000B2E001C01D92AD38B207E1F712E0A0E075
:1001A000B1E0E8EEFFE402C005900D92AC30B1077B
:1001B000D9F710E0CFEBD0E004C02197FE010E94F8
:1001C000DF25CE3BD107C9F70E94621E0C94E727BA
:1001D0000C940000CF93DF9390E0FC01E85EFE4FAB
:1001E00024918A5C9E4FFC0184918823C9F090E0A1
:1001F000880F991FFC01E051FF4FA591B491FC01BC
:10020000E45DFE4FC591D49161110DC09FB7F89484
:100210008C91209582238C938881282328839FBFEB
:10022000DF91CF910895623051F49FB7F8943C91DB
:10023000822F809583238C93E8812E2BEFCF8FB76D
:10024000F894EC912E2B2C938FBFEACF2FB7F89414
:10025000609118027091190280911A0290911B020C
:100260002FBF08953FB7F89480911C0290911D0212
:10027000A0911E02B0911F0226B5A89B05C02F3F7A
:1002800019F00196A11DB11D3FBFBA2FA92F982FBC
:100290008827BC01CD01620F711D811D911D42E0B7
:1002A000660F771F881F991F4A95D1F70895DC01C3
:1002B0009096ED91FC91919792962D913C91A90188
:1002C00041705527309719F44115510579F035954E
:1002D0002795820F931F452B41F0DC012D913C9116
:1002E000E20FF31F0190F081E02D09940895DC01E5
:1002F0009496ED91FC91959796962D913C91A9013C
:1003000041705527309719F44115510579F035950D
:100310002795820F931F452B41F0DC012D913C91D5
:10032000E20FF31F0190F081E02D09948FEF089503
:10033000DC019896ED91FC9199979A962D913C91BC
:10034000A90141705527309719F44115510579F0ED
:1003500035952795820F931F452B41F0DC012D9198
:100360003C91E20FF31F0190F081E02D0994089574
:10037000DC019C96ED91FC919D979E962D913C9170
:10038000A90141705527309719F44115510579F0AD
:1003900035952795820F931F452B41F0DC012D9158
:1003A0003C91E20FF31F0190F081E02D0994089534
:1003B00008954F925F926F927F928F929F92AF9229
:1003C000BF92CF92DF92EF92FF920F931F93CF9342
:1003D000DF9300D000D01F92CDB7DEB78B0129018B
:1003E0003A01909104018917C9F09F3F09F47EC03A
:1003F0000F900F900F900F900F90DF91CF911F9162
:100400000F91FF90EF90DF90CF90BF90AF909F90B3
:100410008F907F906F905F904F900895EAE4F1E0A5
:1004200094919D8397FDE4CF61E00E94EA008D8165
:10043000882321F09D81923009F04AC14801B12CF6
:10044000A12C60E072E18AE790E0A50198010E948A
:10045000C02529833A834B835C8369017A0181E05B
:10046000C81AD108E108F1089FEFC916D104E104C8
:10047000F10409F00CF401C160E472E48FE090E053
:10048000A50198010E94C02569017A0181E0C81A7E
:10049000D108E108F1089D81923009F0A2C08FEFE8
:1004A000C816D104E104F10409F00CF4E6C160E9D6
:1004B00070ED83E090E0A50198010E94C0256901DC
:1004C0007A0191E0C91AD108E108F1088FEFC81646
:1004D000D104E104F10411F00CF07FC183E09091AC
:1004E000B100987F892B8093B100CFC08093040125
:1004F000EAE4F1E094919D839F3F09F479CF913034
:1005000041F150F0923009F446C09D8197FD70CFC3
:1005100061E00E94EA008ECF14BC15BC94B59260D5
:1005200094BD95B5916095BD282F30E0F901EA5C46
:10053000FE4FE491F0E0EE0FFF1FE45DFE4F4591AA
:100540005491F901E85EFE4FE491E09321021D828F
:100550006BCF109280001092810090918100986082
:100560009093810090918100916090938100282F59
:1005700030E0F901EA5CFE4FE491F0E0EE0FFF1F7E
:10058000E45DFE4F45915491F901E85EFE4FE49120
:10059000E093200249CF1092B0001092B1009091E8
:1005A000B00092609093B0009091B10091609093F0
:1005B000B100282F30E0F901EA5CFE4FE491F0E051
:1005C000EE0FFF1FE45DFE4F4591549150932B02B7
:1005D00040932A02F901E85EFE4FE491E0932C0279
:1005E00023CF9FEFC916D104E104F10409F00CF404
:1005F0006DC068E478EE81E090E0A50198010E946A
:10060000C02569017A0181E0C81AD108E108F10822
:100610009D81992309F4FAC08FEFC816D104E10433
:10062000F10411F00CF0FBC0EFC064E274EF80E065
:1006300090E0A50194010E94C02569017A0181E042
:10064000C81AD108E108F10885E09FEFC916D10466
:10065000E104F10409F008F442CF62E17AE780E0B6
:1006600090E0A50194010E94C02569017A0181E012
:10067000C81AD108E108F108E5C081E09D81911117
:100680002ECF95B5987F892B85BD2FEF3FEFA90120
:10069000411451046104710409F043C09D819130FB
:1006A00009F45EC0923009F46DC09111A1CEC7BCAF
:1006B0002093260230932702409328025093290268
:1006C00080916E00826080936E0092CE82E0D6CFE1
:1006D000B12CA12C60E072E18AE790E0A5019801BD
:1006E0000E94C02569017A0181E0C81AD108E10899
:1006F000F108C114D10491E0E906F10404F591E098
:100700008D81813011F680918100887F892B8093C3
:1007100081002FEF3FEFA9014114510461047104DE
:10072000F9F0D801AA0FBB1FA30192010E94B523C3
:1007300028EE33E040E050E00E949E25AFCF68E411
:1007400078EE81E090E0A50198010E94C025690142
:100750007A0181E0C81AD108E108F10893E0D0CF0E
:10076000D0928900C0928800209322023093230205
:10077000409324025093250280916F008260809301
:100780006F0036CEC092B30020932D0230932E021C
:1007900040932F02509330028091700082608093CA
:1007A000700026CE84E09FEFC916D104E104F10465
:1007B00009F008F466CFC980DA80EB80FC808AE01B
:1007C000F594E794D794C7948A95D1F781E0C81A35
:1007D000D108E108F10885E054CF68E478EE81E0C3
:1007E00090E0A50198010E94C02569017A0181E08D
:1007F000C81AD108E108F1089FEFC916D104E10435
:10080000F10411F00CF011CF84E069CE83E09FEF8A
:10081000C916D104E104F10409F00CF432CF62E10D
:100820007AE780E090E0A50194010E94C02569016B
:100830007A0181E0C81AD108E108F1089D81992365
:1008400009F4B0CF86E09FEFC916D104E104F104AA
:1008500009F008F444CEC980DA80EB80FC809AE08D
:10086000F594E794D794C7949A95D1F781E0C81A84
:10087000D108E108F10887E032CE82E030CEAF92B5
:10088000BF92CF92DF92EF92FF920F931F93CF937D
:10089000DF936C017B018B01040F151FEB015E01DF
:1008A000AE18BF08C017D10759F06991D601ED9174
:1008B000FC910190F081E02DC6010995892B79F713
:1008C000C501DF91CF911F910F91FF90EF90DF90C5
:1008D000CF90BF90AF900895FC01538D448D252F8C
:1008E00030E0842F90E0821B930B541718F0875050
:1008F0009F4F089501970895FC01918D828D98175F
:10090000A9F0A28DAE0FBF2FB11D5D968C91228DE7
:100910002F5F91E02A3F08F490E0392F330F330F17
:10092000931B990F291B228F90E008958FEF9FEF63
:100930000895FC01918D828D981731F0828DE80F1A
:10094000F11D858D90E008958FEF9FEF0895FC01D4
:10095000918D228D892F90E086509F4F821B9109A7
:100960006AEF70E00E947625089585E392E00E9488
:10097000A70421E0892B09F420E0822F089580E06C
:1009800090E0892B29F00E94B50481110C9400009D
:100990000895FC01A48DA80FB92FB11DA95EBE4F0B
:1009A0002C91848D90E001966AEF70E00E948A2578
:1009B000848FA689B7892C93A089B1898C91837083
:1009C00080648C93938D848D981306C00288F3897C
:1009D000E02D80818F7D80830895FF920F931F9378
:1009E000CF93DF93EC0181E0888F9B8D8C8D9813E2
:1009F00019C0E889F989808185FF14C09FB7F894F0
:100A0000EE89FF896083E889F98980818370806439
:100A100080839FBF81E090E0DF91CF911F910F9184
:100A2000FF900895062F8B8D90E001966AEF70E09D
:100A30000E948A25182FF82E8C8D8F110CC00FB6AE
:100A400007FCFACFE889F989808185FFF5CFCE01CF
:100A50000E94C904F1CFEB8DEC0FFD2FF11DE95E73
:100A6000FE4F00839FB7F8941B8FEA89FB89808132
:100A70008062CECF0F931F93CF93DF938C01D0E092
:100A8000C0E0F801EC0FFD1F6491662341F085E39F
:100A900092E00E94ED04892B11F02196F2CFCE0155
:100AA000DF91CF911F910F910895CF93DF93EC01C8
:100AB000888D8823B9F0AA89BB89E889F9898C9146
:100AC00085FD03C0808186FD0DC00FB607FCF7CF02
:100AD0008C9185FFF2CF808185FFEDCFCE010E9402
:100AE000C904E9CFDF91CF910895833081F028F4D4
:100AF000813099F08230A9F008958730A9F08830CC
:100B0000C9F08430B1F4809180008F7D03C0809162
:100B100080008F7780938000089584B58F7784BD9F
:100B2000089584B58F7DFBCF8091B0008F7780933F
:100B3000B00008958091B0008F7DF9CFCF93DF93FF
:100B4000282F30E0F901EC5FFE4F8491F901E85E57
:100B5000FE4FD491F901EA5CFE4FC491CC23A1F081
:100B600081110E947505EC2FF0E0EE0FFF1FE6509B
:100B7000FF4FA591B491EC91ED2381E090E009F451
:100B800080E0DF91CF91089580E090E0FACF1F934D
:100B9000CF93DF93282F30E0F901EC5FFE4F849173
:100BA000F901E85EFE4FD491F901EA5CFE4FC49171
:100BB000CC23A9F0162F81110E947505EC2FF0E0CF
:100BC000EE0FFF1FE45DFE4FA591B4918FB7F8942F
:100BD000EC91111108C0D095DE23DC938FBFDF911B
:100BE000CF911F910895DE2BF8CF909104018913C6
:100BF0000BC0EAE4F1E0E4919FEF90930401E1304F
:100C000049F028F0E23061F060E00C94C7051092E2
:100C10006E00FACF90916F009D7F90936F00F4CF9C
:100C2000909170009D7F9093700091E09093B00040
:100C30009091B100987F94609093B1001092B300AE
:100C4000E3CF8230910538F0880F991F880F991FE4
:100C500005970197F1F7089508958F929F92AF92AB
:100C6000BF92CF92DF92EF92FF926B017C010E94C4
:100C700032014B015C01C114D104E104F104B9F06B
:100C80000E943201681979098A099B09683E7340FC
:100C90008105910580F321E0C21AD108E108F1082D
:100CA00088EE880E83E0981EA11CB11CE4CFFF9053
:100CB000EF90DF90CF90BF90AF909F908F9008956E
:100CC000823068F4E82FF0E0813051F0E898EE0FC0
:100CD000FF1FE050FF4F82E796E0918380830895E5
:100CE000E998F5CF08958230E8F4E82FF0E0EE0FB0
:100CF000FF1FE050FF4F71836083813041F080918E
:100D000069008C7F482B40936900E89A0895809190
:100D10006900837F440F551F440F551F482B409394
:100D20006900E99A089587EE9FEF08950F931F9346
:100D3000CF93DF93EC01862F0E949E05682F8E01D2
:100D4000085E1E4FF8018081811133C09E01255F2E
:100D50003E4FF90180819181A281B381880F991F53
:100D6000AA1FBB1F862B80839183A283B383275F37
:100D70003F4FF90140815181628173818423952322
:100D8000A623B72325503109F901408151816281A1
:100D9000738184179507A607B70731F481E0F8013E
:100DA000808319861A861886DF91CF911F910F9143
:100DB00008954985FE01E40FF11D5385988521E0D2
:100DC00030E0092E01C0220F0A94EAF7662311F1E0
:100DD000252B23879F5F9887983031F723852295AD
:100DE00030E0C90195958795959587958373220F76
:100DF000331F220F331F2C7C822B90E09C013595F2
:100E000027952575880F991F8A7A822B83874F5FD4
:100E10004987C9CF20952523DCCF875E9E4FDC0113
:100E2000ED91FC9183A98F3F79F0823059F08330A6
:100E300059F481E00684F785E02D309729F043E0EE
:100E400050E0099480E0F6CF0895875E9E4FFC0144
:100E5000808191810895262FDC011496ED91FC91FB
:100E6000309719F0642F822F0994089580913102F0
:100E7000882361F09FB7F894209131028091160287
:100E8000213019F48DBB9FBF08958FBF0895FC01D9
:100E900026A997A980913102882361F08FB7F89431
:100EA00030913102313049F43DB3309316023DB3F5
:100EB0003DBB8FBF2CBD9DBD089580931602FACF18
:100EC000CF93CFB7F89480913202811127C0E0E42C
:100ED000F1E08491E2E2F1E09491E82FF0E0EE0F8E
:100EE000FF1FE051FF4FA591B491EC91E92321F44C
:100EF00061E08AE00E94C70561E08AE00E94EA00A2
:100F00008CB580618CBD8CB580648CBD61E08DE05A
:100F10000E94EA0061E08BE00E94EA0080913202C8
:100F20008F5F80933202CFBFCF910895DC015A9634
:100F3000ED91FC91309709F0099460E070E0CB01ED
:100F40000895DC015496ED91FC91309719F0CB0196
:100F5000BA0109940895DC015296ED91FC91309705
:100F600009F0099408956F3F49F0DC011896ED915E
:100F7000FC91309719F0862F0995089580E0089527
:100F8000FC01862F6F3F39F00680F781E02D309706
:100F900011F0642F09940895CF93DF93EC01C75E9D
:100FA000DE4F88819981FC0162A96F3F19F041E011
:100FB0000E942B078881998140E0FC0162A90E9470
:100FC000C00741E050E060E070E0888199810E94B4
:100FD000A1078881998141E0FC0162A90E94C007B4
:100FE00045E050E060E070E088819981DF91CF9129
:100FF0000C94A1071F93CF93DF93FC0121AD222313
:1010000071F0142F462FEC0162AD0E94C007412FF2
:101010006BADCE01DF91CF911F910C94C007DF9192
:10102000CF911F9108958EBD00000DB407FEFDCF36
:101030008EB50895BF92CF92DF92EF92FF920F93F9
:101040001F93CF93DF93EC01F62EB42E6901E88154
:10105000F9810190F081E02D099540E068A9CE0169
:101060000E94C0078B2D8F290E9413088B818F113E
:1010700011C0C114D10419F18601F12CC8018C19D9
:101080009D098E159F05D8F4F80181918F010E946A
:101090001308F4CF8A818F1112C00115110579F060
:1010A0006801F12CC601801B910B8E159F0538F449
:1010B00080E00E941308F60181936F01F3CF41E0B5
:1010C00068A9CE010E94C007E881F9810280F381FE
:1010D000E02DCE01DF91CF911F910F91FF90EF9006
:1010E000DF90CF90BF900994EF920F931F93CF930F
:1010F000DF931F92CDB7DEB74983EE24E39410E06F
:1011000000E09E012F5F3F4F462FFC0163810E944C
:101110001A080F90DF91CF911F910F91EF900895D2
:10112000EF920F931F93CF93DF931F92CDB7DEB74C
:10113000462F1982EE24E3948E010F5F1F4F30E09B
:1011400020E0FC0162810E941A0889810F90DF91E2
:10115000CF911F910F91EF900895875E9E4F61E0B0
:10116000FC01808191810E949008807890E0089530
:10117000CF93DF93EC010E94AD088038910551F4C4
:10118000C75EDE4F4FEF62E188819981DF91CF9199
:101190000C947408892B59F4C75EDE4F4FEF6EE351
:1011A000888199810E9474084FEF6FE3EDCFDF9142
:1011B000CF910895DF92EF92FF920F931F93CF93F9
:1011C000DF93EC01D62E0E94AD0880389105D9F44A
:1011D000FE01ED5DFE4F8081863081F0C75EDE4FFF
:1011E00063E1888199810E94900890E0DF91CF911E
:1011F0001F910F91FF90EF90DF900895C45DDE4F37
:1012000088819981F3CF8E01045D1E4F892BF1F403
:101210007E018EECE81A8EEFF80AF70180818111C9
:1012200015C0DD2099F0799780819181CD5CDE4FEA
:10123000288160E0203809F062E30E94900890E085
:10124000F8019183808381E0F7018083F801808138
:101250009181CCCFCF93DF93EC010E94AD08803811
:101260009105B9F4C75EDE4F69E1888199810E94DA
:101270009008682F880F770B880B990B0E94982293
:1012800020E030E040E85EE30E94F722DF91CF915A
:10129000089560E070E0CB01F9CF8F929F92AF92FA
:1012A000BF92CF92DF92EF92FF920F931F93CF9353
:1012B000DF93EC018B016A010E94AD084C01E881CB
:1012C000F9810280F381E02DCE010995E881F98151
:1012D0000488F589E02D61E0CE0109957C01C114F7
:1012E000D10439F0C816D90668F58C199D09760124
:1012F0006C015E0127EEA21A2EEFB20AF501808181
:101300009181F0E88F16910471F5FE01E65DFE4FC4
:1013100020812223D1F06CE10E94900886FD15C047
:10132000CE010E94B80888EE9FEFDF91CF911F9108
:101330000F91FF90EF90DF90CF90BF90AF909F9074
:101340008F900895D12CC12CD4CF62E1F50180811A
:1013500091810E94900885FF16C0CE010E94B808B6
:1013600089EF9FEFE2CF892871F460E30E94900833
:101370008670823011F0843031F460E0F5018081B4
:1013800091810E949008F5018081918130E020E0F8
:1013900040E0FC0162810E941A08C114D10451F09E
:1013A00060E0F501808191810E949008F1E0CF1A00
:1013B000D108F3CFFE01EE5CFE4F1082CE010E94F9
:1013C000B80890E080E0B1CF4F925F926F927F9229
:1013D000AF92BF92CF92DF92EF92FF920F931F9343
:1013E000CF93DF93283008F060C0083008F05DC06C
:1013F000201708F45AC01C2DC22F742ED62F5C0162
:101400000E94900821E02C0F6FEF70E0AB0102C04A
:10141000440F551F2A95E2F79A0148E050E0401B1F
:10142000510902C0759567954A95E2F7262BC22FA0
:10143000C0952823C721C22B4C2F6D2FC5010E94B8
:101440007408C5010E9496072B013C0128EE33E089
:10145000E29E6001E39ED00C11240D2C000CEE08DE
:10146000FF08C5010E949607641975098609970946
:101470006C157D058E059F05D8F46D2FC5010E9462
:1014800090088C27812369F790E080E0DF91CF916D
:101490001F910F91FF90EF90DF90CF90BF90AF9092
:1014A0007F906F905F904F90089585EF9FEFEECF04
:1014B00080EF9FEFEBCFCF92EF920F931F936630A9
:1014C00058F5FC01E75EFE4F80819181E62FF0E048
:1014D000362F330F643098F403E010E00E1B1F0B1F
:1014E000000F27E0231BCC24CA9452E0E52E60E4D1
:1014F0000E94E4091F910F91EF90CF90089507E0AB
:1015000010E00E1B1F0B000F2FE0231BCC24CA94EE
:1015100032E0E32E61E4ECCF86EE9FEFEBCFCF928B
:10152000EF920F931F93CF93DF93EC01162F0E943E
:10153000AD08892B19F48EEF153009F08FEFC75ED7
:10154000DE4FC82E85E0E82E00E022E0412F61E06A
:10155000888199810E94E409DF91CF911F910F91B9
:10156000EF90CF900895AF92BF92CF92DF92EF921B
:10157000FF920F931F93CF93DF93EC010E94AD086E
:10158000892BE9F591E1E92E65E0CE010E948F0AF1
:101590005E0187EEA81A8EEFB80A4AE050E060E0DC
:1015A00070E0F501808191810E94A10710E000E0C8
:1015B000F12C6E2DF501808191810E94900880FBB5
:1015C000CC24C0F8D12CC601002E01C0880F0A948B
:1015D000EAF7F82A0F5F1F4F0830110551F761E055
:1015E000CE010E948F0A8F2DDF91CF911F910F9115
:1015F000FF90EF90DF90CF90BF90AF9008958CE276
:10160000E82EC2CFCF93DF93EC01FC01E75EFE4FE3
:1016100040E060E0808191810E94FA0761E0CE01A4
:10162000DF91CF910C948F0ACF92EF920F931F937B
:10163000CF93DF93EC01162F0E94AD08892B89F51B
:101640001130D9F028F0123011F189EE9FEF0EC061
:10165000C75EDE4FCC24CA9422E0E22E05E026E0ED
:1016600040E060E3888199810E94E409DF91CF9195
:101670001F910F91EF90CF900895C75EDE4FCC245D
:10168000CA9492E0E92E05E026E040E2EACFC75E88
:10169000DE4FCC24CA9482E0E82E05E026E040E448
:1016A000E0CF8CEE9FEFE2CF4F925F926F927F92EE
:1016B000AF92BF92CF92EF920F93CF93DF93EC0153
:1016C0002A013B015C0187EEA81A8EEFB80A64E29A
:1016D000F501808191810E94900881114BC061E0E9
:1016E000CE010E948F0AEC0120E030E040E059E496
:1016F000C301B2010E94F72220E030E040E05DE348
:101700000E94F7220E94FC242B013C01A3016627C2
:101710007727CC24CA9492E0E92E00E027E066E027
:10172000F501808191810E94E409C82BD92B77278C
:10173000672D562D452D27E067E0F50180819181C9
:101740000E94E409C82BD92B27E0442D68E0F5015D
:10175000808191810E94E4098C2B9D2BDF91CF9198
:101760000F91EF90CF90BF90AF907F906F905F9070
:101770004F900895D0E0C0E0B7CF4F925F926F9244
:101780007F92AF92BF92CF92DF92EF92FF920F9330
:101790001F93CF93DF93EC015A016B010E94AD08B8
:1017A000892B09F07DC020E030E0A901B501C60118
:1017B0000E9491227501860187FF06C02AE9E22E68
:1017C00039E9F32E09E11FE320E030E040E05FE378
:1017D000FE01EB5DFE4F60817181828193810E94E9
:1017E000F7229701A8010E94072420E030E04AE791
:1017F00053E40E94912218160CF455C020E030E00A
:1018000048E453E4B501C6010E94912218160CF475
:101810004AC061E0CE010E948F0A009791F520E056
:1018200030E040E059E4B701C8010E94F72220E00F
:1018300030E04AEF56E40E948A240E94FC242B01E7
:101840003C017727672D562D452D5E0187EEA81A9E
:101850008EEFB80ACC24CA9492E0E92E00E025E08D
:1018600064E0F501808191810E94E409EC0127E0A8
:10187000442D65E0F501808191810E94E4098C2B63
:101880009D2BDF91CF911F910F91FF90EF90DF90F3
:10189000CF90BF90AF907F906F905F904F900895E2
:1018A0008CEE9FEFEECF8AE99FEFEBCF2F923F9226
:1018B0004F925F926F927F928F929F92AF92BF9260
:1018C000CF92EF920F931F93CF93DF9300D000D06E
:1018D000CDB7DEB75C017A8369835C834B83522E7C
:1018E00061E00E948F0A4C01C5010E94AD081C01F5
:1018F00080E82816310409F04EC0AB81BC818CEF22
:101900009FEFAF3FB10511F008F0C3C02501B7EE5E
:101910004B1ABEEF5B0A64E2F201808191810E9462
:101920009008D201ED91FC91CC24CA9442E0E42EBF
:1019300004E0811101C006E027E040E460E4CF014B
:101940000E94E409C5010E94B808CC24CA9432E080
:10195000E32E00E027E04B8162E2F2018081918179
:101960000E94E4093C0127E040E06EE0D2018D9145
:101970009C910E94E40986299729882A992A27E0C0
:1019800040E06DE0F201808191810E94E409882AA3
:10199000992AEB8051C021143104D9F7C5010E9466
:1019A000B808C501875E9E4F3C01AB81BC81CC2449
:1019B000CA9422E0E22EA134B10508F47FC004E00D
:1019C00025E040E160E4FC01808191810E94E4090E
:1019D000F501ED5CFE4F8081803839F44B8160E089
:1019E000F301808191810E94740860E3D3018D919D
:1019F0009C910E9490088670823011F0843039F4F6
:101A0000452D60E0F301808191810E9474088B81F3
:101A10009C818134910508F4BCCFCC24CA9482E027
:101A2000E82E07E027E040E865E3D3018D919C9123
:101A30000E94E4099EE1E92E3501B7EE6B1ABEEF74
:101A40007B0AF3018081918110E000E029813A81D5
:101A500040E0DC0113966C910E941A08232861F47F
:101A6000EB81FC81E134F10538F04FE260E0D30115
:101A70008D919C910E94740841E060E0F3018081A7
:101A800091810E94FA0763E0C5010E948F0A8829AC
:101A900099290F900F900F900F90DF91CF911F9188
:101AA0000F91EF90CF90BF90AF909F908F907F90CD
:101AB0006F905F904F903F902F90089506E027E041
:101AC00040E060E4DC018D919C9180CF8F929F92E9
:101AD000AF92BF92CF92EF92FF920F931F93CF934B
:101AE000DF935C01F62E142F61E00E948F0A0097AD
:101AF00009F056C0C5010E94AD089501275E3E4F12
:101B000049018038910509F057C064E2D9018D91EF
:101B10009C910E949008D401ED91FC91CC24CA9430
:101B200032E0E32E04E027E040E4811101C040E010
:101B300060E4CF010E94E409EC01F501ED5DFE4F88
:101B40008081863079F4CC24CA9422E0E22E00E031
:101B500027E04F2D62E2F401808191810E94E40927
:101B6000C82BD92BC5010E94B808CC24CA9492E096
:101B7000E92E00E027E040E06FE0D4018D919C91D8
:101B80000E94E409C82BD92B27E040E06DE0F40166
:101B9000808191810E94E4098C2B9D2B0097C1F1DB
:101BA000DF91CF911F910F91FF90EF90CF90BF9059
:101BB000AF909F908F900895892B51F5CC24CA94B3
:101BC00082E0E82E06E027E040E060E4D4018D9159
:101BD0009C910E94E409009719F7C5010E94B8087A
:101BE0001530B1F440E061E0F401808191810E9400
:101BF000FA0765E0C501DF91CF911F910F91FF902A
:101C0000EF90CF90BF90AF909F908F900C948F0AE1
:101C100040E061E0D4018D919C910E94FA07612F10
:101C2000E9CFAF92BF92CF92EF920F93CF93DF9312
:101C30005C0161E00E948F0A009741F5E501C75EF3
:101C4000DE4FCC24CA9482E0E82E02E025E040E09A
:101C500060E4888199810E94E4090097B9F4C50184
:101C60000E94AD08892BD1F400E022E040E06DE055
:101C7000888199810E94E409009741F406E026E0FA
:101C800040E061E3888199810E94E409DF91CF916E
:101C90000F91EF90CF90BF90AF9008958CEE9FEF93
:101CA000F5CFCF93DF93EC010E94AD08892BA1F40F
:101CB00040E061E0FE01E75EFE4F808191810E947D
:101CC000FA07CE010E94110E009741F465E0CE01A3
:101CD000DF91CF910C948F0A8CEE9FEFDF91CF9123
:101CE0000895CF92DF92EF92FF920F931F93CF93BD
:101CF000DF93EC016A017B010E94AD08892B09F09A
:101D000043C08E01075E1E4F41E060E0F801808114
:101D100091810E94FA07C114D104E104F10431F168
:101D2000A7016627772766E0F801808191810E94EC
:101D3000740877276F2D5E2D4D2D67E0F8018081A7
:101D400091810E9474084C2D68E0F8018081918196
:101D50000E94740863E0CE01DF91CF911F910F9133
:101D6000FF90EF90DF90CF900C948F0ACE010E94ED
:101D7000110E009779F3DF91CF911F910F91FF9092
:101D8000EF90DF90CF9008958CEE9FEFF4CF3F92CD
:101D90004F925F926F927F928F929F92AF92BF927B
:101DA000CF92DF92EF92FF920F931F93CF93DF9327
:101DB000EC01362E0E94AD088038910509F094C1DF
:101DC0008E01015E1E4F20E030E04AEF53E4F8013F
:101DD00060817181828193810E9406249F772FE622
:101DE00032E143E85AE30E9491229E01255E3E4F74
:101DF0005901181664F1F901C080D180E280F380A6
:101E000020E030E847E554E4C701B6010E946C25A4
:101E100087FD47C020E030E04FE754E4C701B6013A
:101E20000E9491221816ECF142E066E37E01F7EE83
:101E3000EF1AFEEFFF0AF701808191810E9474087A
:101E400044E66AE3F701808191810E947408F501FC
:101E5000C080D180E280F380F801408051806280B0
:101E600073802AE939E949EF50E4C301B2010E94C5
:101E700006249F772FE632E143E85AE30E9491223D
:101E8000181694F127E03BEE4FEF5BE3C701B60174
:101E90000E9407246B017C0110E048E4942E812C01
:101EA000F3C020E030E04DEC53E4C701B6010E94DE
:101EB0006C2587FDCCCF20E030E443E054E4C7013B
:101EC000B6010E94912218160CF4C1CF42E066E3DD
:101ED0007E01F7EEEF1AFEEFFF0AF7018081918194
:101EE0000E9474084FE7ADCF26E636E646E251E49D
:101EF000C301B2010E9406249F772FE632E143E836
:101F00005AE30E94912226EA38EB4AE25CE3181673
:101F10000CF055C02AE939E949E751E4C301B2019F
:101F20000E9406249F772FE632E143E85AE30E949D
:101F3000912227E03BEE4FE75CE318160CF03FC020
:101F400026E636E646EA51E4C301B2010E940624C1
:101F50009F772FE632E143E85AE30E9491222DEA6F
:101F600033EA4AEA5CE3181654F520E030E04AEF21
:101F700051E4C301B2010E9406249F772FE632E1AB
:101F800043E85AE30E94912220E030E040E05DE324
:101F90001816ACF42DEC3CEC46E252E4C301B2015D
:101FA0000E9406249F772FE632E143E85AE30E941D
:101FB0009122181674F029E23EEA4AE25DE3C70175
:101FC000B6010E9407246B017C0110E034E4932EDB
:101FD00066CF20E030E04AE752E4C301B2010E943C
:101FE00006249F772FE632E143E85AE30E949122CC
:101FF00018160CF08BC020E030E04AEF52E4C30129
:10200000B2010E9406249F772FE632E143E85AE3AB
:102010000E94912218160CF079C020E030E04AE7C7
:1020200053E4C301B2010E9406249F772FE632E1F8
:1020300043E85AE30E94912218160CF067C020E092
:1020400030E04AEF53E4C301B2010E9406249F77B7
:102050002FE632E143E85AE30E94912218160CF46D
:1020600043C06FE28E01075E1E4FF80180819181AF
:102070000E949008982E60E3F801808191810E946F
:102080009008182F20E4822EE881F9810280F381E4
:10209000E02DCE010995B701A601311005C0F5016B
:1020A0004081518162817381CE010E94540BC75ED1
:1020B000DE4FCC24CA9482E0E82E07E027E0482DCA
:1020C00061E3888199810E94E40900E027E0492DBD
:1020D0006FE2888199810E94E40927E0412F60E343
:1020E000888199810E94E409DF91CF911F910F911E
:1020F000FF90EF90DF90CF90BF90AF909F908F9028
:102100007F906F905F904F903F90089510E090E423
:10211000992EC5CE60E085E00E94C70560E083E0AF
:102120000C94C7050E948A1062E370E080E090E0A2
:102130000E942D066AE070E080E090E00E942D068B
:1021400010927A0083B7816083BF14BEE0E6F0E0AE
:1021500088E1808381E68083A89583B7817F84604E
:1021600083BF6AE070E080E090E00E942D06F89462
:1021700083B7816083BF80E685BF80E485BF7894A4
:10218000889583B78E7F83BF0895AF92BF92CF9219
:10219000EF920F931F93CF93DF93EC01162F0E94C2
:1021A000AD08892B59F08CEE9FEFDF91CF911F91F5
:1021B0000F91EF90CF90BF90AF9008955E0187EDA3
:1021C000A81A8EEFB80AF5018081882319F111232E
:1021D00019F085E99FEFE9CFCE010E94AD08892B68
:1021E00011F7F50180818823A1F3CE010E94020B33
:1021F0005C01C75EDE4FCC24CA9442E0E42E05E0C9
:1022000026E040E06AE0888199810E94E4098A29F9
:102210009B29CBCFCE010E94020B009731F61130E3
:10222000B9F038F01230F1F0143031F186E99FEF57
:10223000BCCFC75EDE4FCC24CA9432E0E32E05E06B
:1022400026E040E06AE0888199810E94E409ADCFF0
:10225000C75EDE4FCC24CA9422E0E22E05E026E0E1
:1022600040E6F0CFC75EDE4FCC24CA9492E0E92E60
:1022700005E026E040E4E6CFC75EDE4FCC24CA94FA
:1022800082E0E82E05E026E040E2DCCFFC01019090
:102290000020E9F73197AF01481B590BBC0185E3DA
:1022A00092E00C943F048DE491E00C944611CF939E
:1022B000DF930E943A05EC010E9453118C0F9D1F81
:1022C000DF91CF910895CF93DF93FC014481558135
:1022D0006081718185E392E00E943F04EC010E94DD
:1022E00053118C0F9D1FDF91CF9108958F929F9274
:1022F000AF92BF920F931F93CF93DF93CDB7DEB70B
:10230000A1970FB6F894DEBF0FBECDBF19A2423021
:1023100008F44AE08E010F5D1F4F842E912CB12CE2
:10232000A12CA50194010E949E25E62FB901CA01A6
:10233000EA30F4F4E05DD801EE938D01232B242BD9
:10234000252B79F790E080E0109719F0CD010E94DD
:102350004611A1960FB6F894DEBF0FBECDBFDF9138
:10236000CF911F910F91BF90AF909F908F90089544
:10237000E95CE1CFCF92DF92EF92FF92CF93DF93B0
:102380006B017C016DE285E392E00E94ED04EC01BB
:1023900066277727CB016C197D098E099F094AE0D2
:1023A0000E9476118C0F9D1FDF91CF91FF90EF90CF
:1023B000DF90CF900895CF93DF93BC01990F880BE6
:1023C000990B97FF0AC00E94BA11EC010E945311A9
:1023D0008C0F9D1FDF91CF9108954AE00E947611E6
:1023E000F4CF4F925F926F927F928F929F92AF92B3
:1023F000BF92CF92DF92EF92FF920F931F93CF93F2
:102400006B017C01742EAC019B010E947125882315
:1024100099F080E591E0CF911F910F91FF90EF909F
:10242000DF90CF90BF90AF909F908F907F906F90F4
:102430005F904F900C94461146015701E894B7F80D
:102440002FEF3FEF4FE75FE7C501B4010E94712511
:1024500081110DC02FEF3FEF4FE75FE7C501B401DA
:102460000E94912218161CF484E591E0D4CF2FEF3E
:102470003FEF4FE75FE4C701B6010E946C251816D5
:102480001CF488E591E0C7CF2FEF3FEF4FE75FECFB
:10249000C701B6010E94912287FDF3CF20E030E012
:1024A000A901C701B6010E94912210E000E087FF58
:1024B0000AC06DE285E392E00E94ED048C01F7FA18
:1024C000F094F7F8F094C0E060E070E080E09FE303
:1024D0007C1641F020E030E040E251E40E948A2482
:1024E000CF5FF6CFA70196010E9407242B013C0184
:1024F0000E94FC244B015C014AE00E9476117C01A1
:10250000E00EF11ECC23C1F1C501B4010E94962258
:102510009B01AC01C301B2010E9406244B015C0186
:102520006EE285E392E00E94ED04E80EF91EC150D0
:1025300018F120E030E040E251E4C501B4010E940E
:10254000F7222B013C010E94FC244B01B12CA12C51
:102550004AE0C501B4010E947611E80EF91EC501DA
:10256000B4010E9496229B01AC01C301B2010E94FA
:1025700006244B015C01DBCFC701CF911F910F9166
:10258000FF90EF90DF90CF90BF90AF909F908F9093
:102590007F906F905F904F900895CF93DF930E944C
:1025A0004611EC010E9453118C0F9D1FDF91CF91BA
:1025B00008950E94C7270F931F93CF93DF93EC01D9
:1025C00088819981009759F02A813B812617370726
:1025D00030F081E0DF91CF911F910F9108958B0131
:1025E0006F5F7F4F0E940A27009759F09983888375
:1025F0001B830A832C813D81232B59F7FC01108218
:10260000E8CF80E0E7CFEF92FF920F931F93CF9335
:10261000DF936115710541F480E0DF91CF911F9147
:102620000F91FF90EF90089541155105B1F07B0196
:10263000EC010C811D81040F151FB8010E94DB12F3
:10264000882351F3288139818C819D81B701820FC4
:10265000931F0E94E0271D830C8381E0DECFCF9380
:10266000DF93EC0188819981009711F00E94812607
:10267000198218821D821C821B821A82DF91CF91DF
:102680000895CF93DF93EC01FB0101900020E9F75F
:102690003197AF01461B570B0E940313811103C0F2
:1026A000CE010E942F13CE01DF91CF910895CF93D9
:1026B000DF93EC01FB0144815581608171810E94AF
:1026C0000313811103C0CE010E942F13CE01DF91AD
:1026D000CF910895EF92FF920F931F93CF93DF93C3
:1026E000EC017B018A01BA010E94DB1281110BC04F
:1026F000CE010E942F13CE01DF91CF911F910F9138
:10270000FF90EF9008951D830C83B7018881998114
:102710000E94E027F0CFFB0101900020E9F73197FC
:10272000AF01461B570B0C946A130F931F93CF9363
:10273000DF93CDB7DEB762970FB6F894DEBF0FBE5A
:10274000CDBF8C01CB01F80111821082138212825D
:10275000158214824AE0BE016F5F7F4F0E944722BC
:10276000BE016F5F7F4FC8010E948B1362960FB648
:10277000F894DEBF0FBECDBFDF91CF911F910F91B7
:102780000895FB01DC0111961C921E9213961C9277
:102790001E92129715961C921E92149786179707F1
:1027A00049F0608171816115710521F04481558185
:1027B0000C946A130895FC01118210821382128214
:1027C000158214826115710551F0FB010190002002
:1027D000E9F73197AF01461B570B0C946A13089524
:1027E000FC0180819181009711F00C94812608955D
:1027F0002F923F924F925F926F927F928F929F9211
:10280000AF92BF92CF92DF92EF92FF920F931F93FE
:10281000CF93DF93CDB7DEB72C970FB6F894DEBF1A
:102820000FBECDBF1C018B010E94AD08803809F09E
:1028300029C1F101ED5DFE4F208161E070E080E093
:1028400090E004C0660F771F881F991F2A95D2F762
:102850000E949622F101E15EFE4F2081318142818A
:1028600053810E948A244B015C0120E030E040E863
:1028700051E40E946C2587FDFBC080E090E0A0E859
:10288000BFE389839A83AB83BC83710197EEE91A16
:102890009EEFF90A6DE1D7018D919C910E949008FD
:1028A0008A876EE1F701808191810E949008898773
:1028B00060E2D7018D919C910E949008D82E61E230
:1028C000F701808191810E9490087D2D682F072E4D
:1028D000000C880B990B0E9498226D837E838F8356
:1028E0009887F101ED5DFE4F608170E090E080E03F
:1028F0000E94962220E030E040E850E40E94F72257
:102900006B017C01B80190E080E00E94962220E0FB
:1029100030E040E051E40E94F722A70196010E94B6
:10292000062420E030E040EE51E40E9407242B0111
:102930003C01F985F2FBFF27F0F9FB871C862B850C
:102940003C85B901330F880B990B0E94982220E037
:1029500030E040E851E40E94F7229B01AC01C30142
:10296000B2010E9407242B013C016A856170062E8A
:10297000000C770B880B990B0E94982220E030E026
:1029800040EA51E40E94F7229B01AC01C301B2016D
:102990000E9406242B013C0120E030E040E051E49D
:1029A00069817A818B819C810E94F7229B01AC0115
:1029B000C701B6010E9406249B01AC01C301B2010C
:1029C0000E948A240E9473246B017C01F101EC5D5A
:1029D000FE4F608170E090E080E00E949622A701A7
:1029E00096010E94F7226B017C0120E030E0A901F2
:1029F0000E946C2518160CF040C020E030E040E04A
:102A000051E4C701B6010E9407242D813E814F8108
:102A100058850E94072420E030E048E850E40E94F6
:102A20000724A50194010E94F7220E94732420E04C
:102A300030E04AE754E40E94F7220E94FC242C96DE
:102A40000FB6F894DEBF0FBECDBFDF91CF911F91BF
:102A50000F91FF90EF90DF90CF90BF90AF909F903D
:102A60008F907F906F905F904F903F902F90089540
:102A700019821A821B821C8208CF60E070E080E01D
:102A800091E4C3CF811198C0C101875E9E4F9A83A4
:102A9000898365E2DC018D919C910E949008F82E5B
:102AA00066E2E981FA81808191810E9490087F2D00
:102AB000682F072E000C880B990B0E94982220E0AB
:102AC00030E040E051E40E94F7222B013C0167E234
:102AD000A981BA818D919C910E949008682F67709E
:102AE000062E000C770B6F5F7F4F072E000C880BB4
:102AF000990B0E94982220E030E040E051E40E94CF
:102B0000F7224B015C0160E3E981FA8180819181C8
:102B10000E949008C12CD12C760184FF06C0C12CE4
:102B2000D12C90E8E92E91E4F92EF101ED5CFE4FF5
:102B300080810F5F1F4F811109C062E3A981BA81B3
:102B40008D919C910E949008082F10E0A50194019E
:102B5000C701B6010E940724A30192010E94072425
:102B60006B017C0183E0000F111F8A95E1F7B8012A
:102B700090E080E00E9496229B01AC01C701B60163
:102B80000E9407246B017C01F101EB5DFE4F20E008
:102B900030E04AE754E460817181828193810E9430
:102BA000F7229B01AC01C701B6010E948A2420E0F4
:102BB00034E244E759E43FCF6FEF7FEFCB013FCFE3
:102BC0004F925F926F927F928F929F92AF92BF923D
:102BD000CF92DF92EF92FF920F931F93CF93DF93E9
:102BE000EC017B01D42EC52E61E00E948F0A009774
:102BF00061F5CE010E94AD0880389105B9F546E037
:102C00006D2DCE010E94660D0097F9F48E01075ECE
:102C10001E4FF80180819181FC0161A90E94B307D8
:102C2000811163C0F801808191810E94AB07F80196
:102C300080819181FC0163A90E94B307882349F335
:102C4000CE010E94B8088AEF9FEFDF91CF911F91CC
:102C50000F91FF90EF90DF90CF90BF90AF909F903B
:102C60008F907F906F905F904F900895892BE9F53A
:102C70006D2D7C2DCE010E94F8134B015C0145E0C7
:102C80006D2DCE010E94660D0097F9F68E01075E4C
:102C90001E4FF801808191810E9496072B013C0113
:102CA000A5E0B0E0A50194010E94B5234B015C01B1
:102CB000F80180819181FC0161A90E94B307811113
:102CC00014C0F801808191810E94AB07F8018081D6
:102CD00091810E94960764197509860997098616DD
:102CE0009706A806B90620F7ABCFE881F9810084E2
:102CF000F185E02D4D2D5C2DB701CE01DF91CF91F7
:102D00001F910F91FF90EF90DF90CF90BF90AF9009
:102D10009F908F907F906F905F904F9009942F922B
:102D20003F924F925F926F927F928F929F92AF925B
:102D3000BF92CF92DF92EF92FF920F931F93CF93A8
:102D4000DF93EC017B018A01D22E61E00E948F0AA1
:102D5000009709F054C0CE010E94AD08803891055B
:102D600009F060C0B801CE010E94F8132B013C01AC
:102D7000E881F9810680F781E02D2D2DA801B701AA
:102D8000CE0109950097D9F51E0127EE221A2EEFE4
:102D9000320AF101808191810E9496076B017C01CA
:102DA000F10180819181FC0161A90E94B307811129
:102DB0008FC0F101808191810E94AB07F101808178
:102DC00091810E9496074B015C01C301B2010E94F0
:102DD000962220E030E040EC5FE30E94F7220E9460
:102DE000FC248C189D08AE08BF08681579058A0573
:102DF0009B05B0F6CE010E94B8088BEF9FEFDF91E4
:102E0000CF911F910F91FF90EF90DF90CF90BF90E7
:102E1000AF909F908F907F906F905F904F903F907A
:102E20002F900895892B09F0A3C0B801CE010E940C
:102E3000F8134B015C01E881F9810680F781E02DF0
:102E40002D2DA801B701CE0109950097C1F63E01CD
:102E5000F7EE6F1AFEEF7F0AF301808191810E94E5
:102E600096076B017C01A5E0B0E0A50194010E94EA
:102E7000B5234B015C01F8E88F0EF3E19F1EA11C06
:102E8000B11CF30180819181FC0161A90E94B3070B
:102E900081111EC0F301808191810E94AB07F30173
:102EA000808191810E9496076C197D098E099F0986
:102EB00086169706A806B90620F7CE010E94B80824
:102EC000E881F9810280F381E02DCE01099595CF4B
:102ED000FE01E75EFE4F808191810E9496074B01C3
:102EE0005C011E01F2ED2F1AFEEF3F0AB80190E0DF
:102EF00080E00E94962220E030E040E051E40E9411
:102F0000F7222B013C01C501B4016C197D098E0922
:102F10009F090E94962220E034E244E759E40E948F
:102F20008A249B01AC01C301B2010E948A24F101F1
:102F30006083718382839383CE010E94B808E88105
:102F4000F9810280F381E02DCE01DF91CF911F91B5
:102F50000F91FF90EF90DF90CF90BF90AF909F9038
:102F60008F907F906F905F904F903F902F9009943B
:102F70008FEF9FEF44CF8F929F92AF92BF92CF92ED
:102F8000DF92EF92FF920F931F93CF93DF93CDB712
:102F9000DEB768970FB6F894DEBF0FBECDBF6FE403
:102FA00071E0CE0107960E94DB138091530490914B
:102FB000540401960E94E5257C01009709F4A4C3FE
:102FC00050E040E0BC018DE494E00E94E0158C01EB
:102FD000892B69F560E08DE494E00E94DA088E0D9B
:102FE0009F1DFC011082B701CE0101960E94DB13E8
:102FF0008F819885009709F478C269817A8161157B
:10300000710509F470C249855A852D813E814217A8
:10301000530708F468C20E94E0278D819E819C8737
:103020008B871E821D82CE0101960E94F013C7017C
:103030000E9481260115110509F0E6C287EE90E095
:103040000E94571185ED90E00E943A05CE01079647
:103050000E94631183EC90E00E943A058DE494E0B5
:103060000E94AD088038910509F056C200916605AE
:103070001091670520E030E049E554E4609168056F
:103080007091690580916A0590916B050E9491226B
:103090006AE187FF3BC2C8010E949008845A990BDD
:1030A000BC01990F880B990B0E9498226B017C013F
:1030B0008DE494E00E942A094B015C0120E030E09D
:1030C000A9010E94912287FF08C0A5019401C701B0
:1030D000B6010E9407246B017C0142E0C701B601E2
:1030E0000E94F1118EEB90E00E9457118DEA90E062
:1030F0000E943A058DE494E00E942A0942E00E9471
:10310000F11189EA90E00E9457118EE890E00E9448
:103110003A058DE494E00E94AD088038910509F0ED
:1031200040C268E280916605909167050E94900810
:103130008F70C82E880FDD08EE08FF087601DD24A9
:10314000CC2469E280916605909167050E94900801
:10315000182F6AE280916605909167050E94900899
:10316000412F50E0542F442770E060E0482BCB0102
:10317000BA016C297D298E299F2983FFEDC1806FBB
:103180009F6F90958095709561957F4F8F4F9F4F62
:103190000E94962220E030E040E85BE40E94F722A3
:1031A00020E034E244EF5BE40E948A246B017C015E
:1031B00020E030E04AEF53E460916C0570916D05BA
:1031C00080916E0590916F050E948A249B01AC014D
:1031D000C701B6010E94F722905842E00E94F11107
:1031E0008AE890E00E945711CE0107960E94F013E2
:1031F00068EB7BE080E090E00E942D0600911402D5
:10320000109115020130110521F580911202909163
:103210001302892BF1F48BE691E00E94CD1260E05D
:1032200085E00E94C70561E083E00E94C70560E574
:1032300070E080E090E00E942D061093130200934E
:1032400012020E948A106BE771E087E494E00E940A
:103250008B138091140290911502892B21F5809196
:103260001202909113020197F1F48EE791E00E940F
:10327000CD1261E085E00E94C70560E083E00E9416
:10328000C70560E570E080E090E00E942D06109296
:103290001302109212020E948A106FE871E087E414
:1032A00094E00E948B1383EC80937C0062E370E0D7
:1032B00080E090E00E942D0603E010E04AE0E42E5A
:1032C000F12C80917A00806480937A006AE070E04B
:1032D00080E090E00E942D0680917A0086FD41C03A
:1032E0002091780090917900892F90E0982F88277D
:1032F000820F911D9093110280931002B7010E94DA
:103300008A2570930F0260930E0280917A00806488
:1033100080937A008DEA91E00E944611809110021C
:10332000909111020E94DB116091100270911102C4
:10333000072E000C880B990B0E94982223E333E39D
:1033400043E550E40E94F72220E030E040E85AE3F1
:103350000E94F72242E00E94F11183E991E00E946D
:10336000CD1280917A00806180937A0062E370E0F0
:1033700080E090E00E942D060150110909F0A1CFD4
:1033800060910E0270910F02CE0101960E9495137A
:1033900060910C0270910D02CE0107960E94951368
:1033A00065E971E0CE010D960E94DB13BE01695FF5
:1033B0007F4FCE010D960E9457136DE971E00E9478
:1033C000411367E474E00E9457136CEA71E00E94B5
:1033D0004113BE016F5F7F4F0E94571362EB71E094
:1033E0000E944113BC01CE0143960E94C113CE013D
:1033F0000D960E94F013CE0107960E94F013CE01A5
:1034000001960E94F01363E875E0CE0101960E94D8
:10341000C11364EB71E0CE0101960E944113BE011D
:103420006D5E7F4F0E945713BC01CE0107960E942C
:10343000C113CE0101960E94F0130E945311CE01D8
:1034400007960E9463116F817885FB01019000202F
:10345000E9F73197AF01461B570B20E08DE494E06C
:103460000E948F16CE0107960E94F013CE0143965C
:103470000E94F01368EB7BE080E090E00E942D0654
:1034800040E060E080916605909167050E94FA0730
:1034900060E08DE494E00E948F0A80910C0290918C
:1034A0000D02019690930D0280930C0260E085E07E
:1034B0000E94C70564E670E080E090E00E942D065F
:1034C00068960FB6F894DEBF0FBECDBFDF91CF91E7
:1034D0001F910F91FF90EF90DF90CF90BF90AF9032
:1034E0009F908F9008950E94812689819A81988764
:1034F0008F838B819C819A8789878D819E819C8710
:103500008B871A8219821C821B828BCDC8010E9474
:1035100090088D59990BC4CD45E060E08DE494E0AE
:103520000E94660D61E180916605909167050E9499
:103530009008682F70E090E080E00E94982220E0E0
:1035400030E040E05FEB0E94F7226B017C018DE4EC
:1035500094E00E94020BC1CD0E94962220E030E050
:1035600040E85BE40E94F72220E034E244EF5BE4B1
:103570000E948A246B017C0120E030E04AEF53E492
:1035800060916C0570916D0580916E0590916F054D
:103590000E948A249B01AC01C701B6010E94F72258
:1035A0001CCE892B61F56DE18091660590916705D0
:1035B0000E949008E82EF12CFE2CEE246EE1809102
:1035C0006605909167050E949008E82AF7FE0DC0F5
:1035D000662777276E197F0990E080E00E94962287
:1035E00020E034E244E752E4F5CDB70190E080E01A
:1035F0000E94962220E034E244E752E4CFCF60E01C
:1036000070E080E89FEBE9CD0A3FFFEF1F0719F458
:1036100081E890E0E7CD86E790E0093F2FEF1207C1
:1036200009F4E0CD88E690E00E943A05C8010E94C6
:10363000DB110E945311CE0107960E9463118B8506
:103640009C85892B09F463C00F81188566E570E0BD
:10365000C8010E94D527009709F459C0801B910B1F
:103660008C010B5F1F4F7C01E4E0EE0EF11C0E1588
:103670001F0528F0902F812F8701E92EF82E6FE487
:1036800071E0CE0101960E94DB13CB84DC840C1523
:103690001D05D8F4EC14FD0408F46701EF81F885EA
:1036A000EC0DFD1DF08010826F817885600F711F19
:1036B000CE0101966115710569F10E948B138F810E
:1036C0009885C80ED91EF601F0828CE591E00E9423
:1036D000461189819A81009701F10E94202297FF6B
:1036E0001FC00E94BA110E94531189819A810097CC
:1036F000D9F00E9420227093150260931402CE012B
:1037000001960E94F01370CD0DEF1FEF8BCF8FEF5E
:103710009FEFA6CF0E942F13D2CF60E070E0CB01C5
:103720004AE00E947611DFCF60E070E0CB01E3CF8A
:103730001F920F920FB60F9211242F933F934F9326
:103740005F936F937F938F939F93AF93BF93EF9309
:10375000FF9380912D0290912E02A0912F02B091A3
:103760003002892B8A2B8B2BD1F190912C02E09186
:103770002A02F0912B0280818927808380912D027B
:1037800090912E02A0912F02B091300218161906C6
:103790001A061B069CF480912D0290912E02A09196
:1037A0002F02B09130020197A109B10980932D0237
:1037B00090932E02A0932F02B0933002FF91EF91CD
:1037C000BF91AF919F918F917F916F915F914F9139
:1037D0003F912F910F900FBE0F901F9018958091E1
:1037E00004010E94F505EACF1F920F920FB60F92C7
:1037F00011242F933F934F935F936F937F938F93F6
:103800009F93AF93BF93EF93FF9385E392E00E9462
:10381000C904FF91EF91BF91AF919F918F917F91DB
:103820006F915F914F913F912F910F900FBE0F902D
:103830001F9018951F920F920FB60F9211242F937D
:103840005F936F937F938F939F93AF93BF93EF9308
:10385000FF93E0914502F09146028081E0914B0296
:10386000F0914C0282FD24C0208180914E0290E0B4
:1038700001966AEF70E00E94762590914F029817AA
:1038800041F0E0914E02F0E0EB5CFD4F258F80931C
:103890004E02FF91EF91BF91AF919F918F917F91D8
:1038A0006F915F912F910F900FBE0F901F90189501
:1038B0008081EFCF1F920F920FB60F9211242F939A
:1038C0003F938F939F93AF93BF93809118029091F2
:1038D0001902A0911A02B0911B023091170223E045
:1038E000230F2D3758F50196A11DB11D2093170206
:1038F0008093180290931902A0931A02B0931B02AE
:1039000080911C0290911D02A0911E02B0911F0295
:103910000196A11DB11D80931C0290931D02A093DE
:103920001E02B0931F02BF91AF919F918F913F9163
:103930002F910F900FBE0F901F90189526E8230F20
:103940000296A11DB11DD2CF1F920F920FB60F92FA
:1039500011242F933F934F935F936F937F938F9394
:103960009F93AF93BF93EF93FF93E0910201F09188
:1039700003010995FF91EF91BF91AF919F918F91B5
:103980007F916F915F914F913F912F910F900FBE5B
:103990000F901F9018951F920F920FB60F9211243F
:1039A0002F933F934F935F936F937F938F939F9347
:1039B000AF93BF93EF93FF93E0910001F09101016A
:1039C0000995FF91EF91BF91AF919F918F917F9159
:1039D0006F915F914F913F912F910F900FBE0F907C
:1039E0001F9018951F920F920FB60F9211242F93CC
:1039F0003F934F935F936F937F938F939F93AF9377
:103A0000BF93EF93FF9380E092E00E944611809174
:103A10003302909134020E94DB1164E670E080E092
:103A200090E00E942D06809133029091340201961D
:103A300090933402809333020FB6F894A895809146
:103A40006000886180936000109260000FBEFF915B
:103A5000EF91BF91AF919F918F917F916F915F9106
:103A60004F913F912F910F900FBE0F901F9018957F
:103A7000CF93DF93CDB7DEB72C970FB6F894DEBFA8
:103A80000FBECDBFE5E3F2E01382128288EE93E031
:103A9000A0E0B0E084839583A683B7838FE091E0B4
:103AA0009183808385EC90E09587848784EC90E017
:103AB0009787868780EC90E0918B808B81EC90E0FB
:103AC000938B828B82EC90E0958B848B86EC90E0DC
:103AD000978B868B118E128E138E148E6CEB71E089
:103AE000CE0101960E94DB13BE016F5F7F4FCE01B6
:103AF00007960E94C11360EC71E0CE0107960E9408
:103B00004113BC0183E895E00E94C113CE010796E2
:103B10000E94F013CE0101960E94F0138CE390E016
:103B20000E94E525FC0189E491E091838083128263
:103B300090E893838AE080AB82E081AB84E082AB43
:103B400086E083AB81E586AB81E087AB11AE2FEFDA
:103B500022AF23AF26E434E035AB24AB80AF2AEEAE
:103B600030E0358324832EE935E03187208727EC48
:103B700035E03783268329ED31E03387228725EF2F
:103B800035E03587248723E736E03787268720E628
:103B900036E0318B208B2CE236E0338B228B2DE20A
:103BA00036E0358B248B21E236E0378B268B26E2FC
:103BB00031E0318F208F22E331E0338F228F20E6F6
:103BC00037E0358F248F178E168E27E531E031A32D
:103BD00020A313A212A227E731E035A324A317A242
:103BE00016A228E931E031A720A713A612A628EBD8
:103BF00031E035A724A717A616A6ADE4B4E040E04F
:103C000054E264E772E412964D935D936D937C9356
:103C100015972FEF30E017963C932E931697189632
:103C20001C92189719961C92199710926805109279
:103C3000690510926A0510926B0510926C0510923E
:103C40006D0510926E0510926F051092700510921E
:103C500071051092720510927305109274051092FE
:103C6000750510927605109277058093780510926D
:103C70007A051092790510927B0510927C051092BE
:103C80007D0510927E0510927F0590938005F0933C
:103C90006705E093660521E231E02D933C93809324
:103CA0008105109282056FE471E087E494E00E9440
:103CB000DB132C960FB6F894DEBF0FBECDBFDF919D
:103CC000CF910895789484B5826084BD84B5816075
:103CD00084BD85B5826085BD85B5816085BD8091D7
:103CE0006E00816080936E0010928100809181004F
:103CF0008260809381008091810081608093810047
:103D0000809180008160809380008091B100846008
:103D10008093B1008091B00081608093B000809169
:103D20007A00846080937A0080917A008260809328
:103D30007A0080917A00816080937A0080917A0085
:103D4000806880937A001092C100E0914502F09162
:103D5000460282E08083E0914102F09142021082AB
:103D6000E0914302F091440280E1808310924D0281
:103D7000E0914902F0914A0286E08083E091470297
:103D8000F0914802808180618083E0914702F09148
:103D90004802808188608083E0914702F091480268
:103DA000808180688083E0914702F09148028081A1
:103DB0008F7D808387EC91E00E94CD1264E670E0F5
:103DC00080E090E00E942D0661E085E00E94EA001C
:103DD00061E083E00E94EA0061E082E00E94EA0084
:103DE00061E084E00E94EA0061E084E00E94C7058F
:103DF00064E670E080E090E00E942D0661E085E0DE
:103E00000E94EA0061E085E00E94C70564E670E078
:103E100080E090E00E942D06C0916605D091670574
:103E200068A96F3F21F041E0CE010E942B0741E0DD
:103E300068A9CE010E94C00788AD8823A1F02E8D0D
:103E40003F8DC901959587958C0F9D1FEC8DFD8D3C
:103E500020FF08C0DC012D913C91E20FF31F01907F
:103E6000F081E02D09958091660590916705FC0130
:103E700061A96F3F19F040E00E942B078091660511
:103E800090916705DC01D3966C916F3F19F040E08B
:103E90000E942B07C0E08DE494E00E94CC0762E40E
:103EA00080916605909167050E949008823161F5C6
:103EB0008DE494E00E94020BEC01892B09F073C0A1
:103EC000CC24CA94A2E0EA2E00E027E040E064E2BD
:103ED00080916605909167050E94E409EC01892BA9
:103EE00009F061C08DE494E00E94AD08803891052E
:103EF000D1F58DE494E00E94AD088038910509F475
:103F00005AC0CCEEDFEF4FC04AE050E060E070E016
:103F100080916605909167050E94A107CF5FCA3026
:103F200009F0B9CFE0916605F091670580AD88236F
:103F3000B9F084A995A9892B99F09FB7F89480913D
:103F40003202882319F0815080933202809132022C
:103F5000811105C08CB58F7B8CBD109231029FBF43
:103F6000CEEFDFEF20C060E08DE494E00E948F0A86
:103F7000EC01CC24CA94F5E0EF2E07E027E040E8FE
:103F800061E080916605909167050E94E409C82B65
:103F9000D92B61E08DE494E00E948F0AC82BD92BC5
:103FA000209709F4A6CF8DE691E00E943A05CE0154
:103FB0000E94DB1182C161E08DE494E00E948F0ACF
:103FC000CC24CA94E2E0EE2E00E027E042E169E36F
:103FD00080916605909167050E94E409EC01892BA8
:103FE00011F761E08DE494E00E948F0AEC0125E076
:103FF00043E26BE080916605909167050E94E409B9
:10400000C82BD92B209779F661E08DE494E00E94CB
:104010008F0AEC01892B39F68DE494E00E94AD08FB
:10402000803809F086C127E040E060E280916605B3
:10403000909167050E94E409EC0127E048E061E205
:1040400080916605909167050E94E409C82BD92BE1
:10405000209709F0A8CF10927B0510927C05109252
:104060007D0510927E058DE494E00E94AD088038B5
:10407000910509F046CF8DE494E00E94020BEC011B
:10408000CC24CA9462E0E62E04E027E040E76DE12C
:1040900080916605909167050E94E409C82BD92B91
:1040A000209709F080CF80E090E0AAEFB2E48093FF
:1040B0006C0590936D05A0936E05B0936F0580918C
:1040C000810581114BC140E050E069ED73E48DE45E
:1040D00094E00E94540BEC01892B09F064CF80E03E
:1040E00090E0A9EDB3E48093680590936905A093EF
:1040F0006A05B0936B058DE494E00E94AD088038AA
:10410000910509F0FECE8DE494E00E94020BEC01D3
:10411000CC24CA9442E0E42E00E020E040E06DE1CF
:1041200080916605909167050E94E409C82BD92B00
:1041300080916605909167052091770544E02111F3
:1041400001C040E04069CC24CA9432E0E32E02E092
:1041500027E06EE10E94E409C82BD92B00E022E0A1
:1041600043E061E380916605909167050E94E40950
:10417000C82BD92B27E04AE067E380916605909130
:1041800067050E94E409C82BD92B209709F00BCFB3
:1041900089E08093700580918105811110C18DE4C3
:1041A00094E00E94AD088038910509F0AACE8DE414
:1041B00094E00E94020BEC01CC24CA9492E0E92E18
:1041C00001E023E046E06DE180916605909167058E
:1041D0000E94E409C82BD92B209709F0E4CE87E090
:1041E000809371058DE494E00E94020BEC0107E0DE
:1041F00027E040E869E080916605909167050E949C
:10420000E409C82BD92B00E026E04FE769E0809154
:104210006605909167050E94E409C82BD92B22E01E
:1042200047E06DE480916605909167050E94E4097E
:10423000C82BD92B209709F0B6CE8DE494E00E94CC
:10424000020BEC018DE494E00E94AD0880389105EA
:1042500009F0DFC002E022E040E066E280916605FE
:10426000909167050E94E4095C0100E027E043E4C7
:104270006CE080916605909167050E94E4098A29A7
:104280009B29C82BD92B209709F08DCE84E691E08D
:104290000E94571180E591E00E943A0560917B05EC
:1042A00070917C0580917D0590917E0542E00E9491
:1042B000F1118BE491E00E9457110E94BB1784ED2D
:1042C00091E00E94CD120E949210C0E0D0E00FB6A3
:1042D000F894A895809160008861809360001092A6
:1042E00060000FBE80913302909134020297B4F0C7
:1042F00088EE91E00E94CD120E94BB170E948A10A6
:1043000062E370E080E090E00E942D0685EF91E08E
:104310000E94CD1210923402109233020E94921029
:104320002097A9F20E94B504882389F20E94000018
:10433000CECF81117AC0CC24CA9472E0E72E00E07F
:1043400027E040E065E280916605909167050E9454
:10435000E409EC0127E041E066E272CEC091660517
:10436000D09167052091700561E070E080E090E0F9
:1043700004C0660F771F881F991F2A95D2F70E94E5
:10438000962220E030E04AEF52E40E948A2420E0A6
:1043900030E040E851E40E946C25CC24CA9452E0FD
:1043A000E52E03E023E048E087FD40E066E2CE0131
:1043B0000E94E409EC01892B09F0F5CD84CEC0916F
:1043C0006605D091670520916C0530916D0540918F
:1043D0006E0550916F0560E070E080E094E40E940B
:1043E0008A2420E030E040E851E40E946C25CC248F
:1043F000CA9422E0E22E03E023E048E087FD40E09B
:1044000066E2CE010E94E409EC01892B09F0CBCDD4
:10441000C6CE892B09F037CFCC24CA9482E0E82E8F
:1044200003E023E040E06DE019CFCFEFDFEFBBCD3D
:1044300087E494E00E94F01383E895E00C94F01375
:104440001F93FC0199278827BC01E8941191103231
:10445000E9F3193010F01E30C8F31B3251F01D3251
:1044600049F4689406C00E945222610F711D811D9B
:10447000911D119110531A30B0F33EF49095809530
:10448000709561957F4F8F4F9F4F1F910895BB2768
:104490004A3031F4992322F4BDE2909581959F4FE3
:1044A0000C946822592F482F372F262F660F771F1D
:1044B000881F991F660F771F881F991F620F731F30
:1044C000841F951F660F771F881F991F0895BB27AC
:1044D000FB015527AA27880F991FAA1FA41710F0C0
:1044E000A41B83955051B9F7A05DAA3308F0A95DCC
:1044F000A193009779F7B111B1931192CB010C946C
:104500008122DC01FC01672F71917723E1F732975B
:1045100004C07C916D9370836291AE17BF07C8F39E
:1045200008950E94D32208F481E00895E89409C018
:1045300097FB3EF490958095709561957F4F8F4FD6
:104540009F4F9923A9F0F92F96E9BB279395F695EC
:10455000879577956795B795F111F8CFFAF4BB0F6A
:1045600011F460FF1BC06F5F7F4F8F4F9F4F16C0CE
:10457000882311F096E911C0772321F09EE8872F58
:10458000762F05C0662371F096E8862F70E060E014
:104590002AF09A95660F771F881FDAF7880F96958D
:1045A000879597F90895990F0008550FAA0BE0E831
:1045B000FEEF16161706E807F907C0F012161306E5
:1045C000E407F50798F0621B730B840B950B39F425
:1045D0000A2661F0232B242B252B21F408950A268B
:1045E00009F4A140A6958FEF811D811D08950E94B9
:1045F0000A230C947B230E946D2338F00E947423BD
:1046000020F0952311F00C9464230C946A23112458
:104610000C94AF230E948C2370F3959FC1F3950FE8
:1046200050E0551F629FF001729FBB27F00DB11D36
:10463000639FAA27F00DB11DAA1F649F6627B00DC6
:10464000A11D661F829F2227B00DA11D621F739FAF
:10465000B00DA11D621F839FA00D611D221F749FBD
:104660003327A00D611D231F849F600D211D822F04
:10467000762F6A2F11249F5750409AF0F1F088232B
:104680004AF0EE0FFF1FBB1F661F771F881F915058
:104690005040A9F79E3F510580F00C9464230C9480
:1046A000AF235F3FE4F3983ED4F386957795679503
:1046B000B795F795E7959F5FC1F7FE2B880F911D82
:1046C0009695879597F9089597F99F6780E870E028
:1046D00060E008959FEF80EC089500240A94161678
:1046E000170618060906089500240A9412161306E0
:1046F000140605060895092E0394000C11F488236E
:1047000052F0BB0F40F4BF2B11F460FF04C06F5F89
:104710007F4F8F4F9F4F089557FD9058440F551F5F
:1047200059F05F3F71F04795880F97FB991F61F033
:104730009F3F79F087950895121613061406551FAA
:10474000F2CF4695F1DF08C0161617061806991F16
:10475000F1CF86957105610508940895E894BB270B
:1047600066277727CB0197F908950E94F723A59F25
:10477000900DB49F900DA49F800D911D112408955C
:104780002F923F924F925F926F927F928F929F9261
:10479000AF92BF92CF92DF92EF92FF920F931F934F
:1047A000CF93DF93CDB7DEB7CA1BDB0B0FB6F89400
:1047B000DEBF0FBECDBF09942A88398848885F8440
:1047C0006E847D848C849B84AA84B984C884DF80B1
:1047D000EE80FD800C811B81AA81B981CE0FD11D95
:1047E0000FB6F894DEBF0FBECDBFED010895A29FB6
:1047F000B001B39FC001A39F700D811D1124911DB5
:10480000B29F700D811D1124911D08955058BB2732
:10481000AA270E941E240C947B230E946D2338F04B
:104820000E94742320F039F49F3F19F426F40C946D
:104830006A230EF4E095E7FB0C946423E92F0E94B1
:104840008C2358F3BA17620773078407950720F083
:1048500079F4A6F50C94AE230EF4E0950B2EBA2F46
:10486000A02D0B01B90190010C01CA01A001112476
:10487000FF27591B99F0593F50F4503E68F11A1622
:10488000F040A22F232F342F4427585FF3CF4695B3
:1048900037952795A795F0405395C9F77EF41F16D5
:1048A000BA0B620B730B840BBAF09150A1F0FF0F9F
:1048B000BB1F661F771F881FC2F70EC0BA0F621F8B
:1048C000731F841F48F4879577956795B795F7957B
:1048D0009E3F08F0B0CF9395880F08F09927EE0F10
:1048E0009795879508950E94542590F09F3748F436
:1048F000911116F40C94AF2360E070E080E89FE320
:10490000089526F01B16611D711D811D0C942B2529
:104910000C9446250E949E240C947B230E947423B1
:1049200058F00E946D2340F029F45F3F29F00C9469
:10493000642351110C94AF230C946A230E948C239E
:1049400068F39923B1F3552391F3951B550BBB27BE
:10495000AA2762177307840738F09F5F5F4F220F03
:10496000331F441FAA1FA9F335D00E2E3AF0E0E8FA
:1049700032D091505040E695001CCAF72BD0FE2F44
:1049800029D0660F771F881FBB1F261737074807D8
:10499000AB07B0E809F0BB0B802DBF01FF27935890
:1049A0005F4F3AF09E3F510578F00C9464230C94CD
:1049B000AF235F3FE4F3983ED4F3869577956795F0
:1049C000B795F7959F5FC9F7880F911D96958795C5
:1049D00097F90895E1E0660F771F881FBB1F6217E4
:1049E00073078407BA0720F0621B730B840BBA0BA2
:1049F000EE1F88F7E09508950E94942388F09F5752
:104A000098F0B92F9927B751B0F0E1F0660F771FF2
:104A1000881F991F1AF0BA95C9F714C0B13091F0E8
:104A20000E94AE23B1E008950C94AE23672F782F37
:104A30008827B85F39F0B93FCCF3869577956795AD
:104A4000B395D9F73EF490958095709561957F4F19
:104A50008F4F9F4F0895882371F4772321F098504A
:104A6000872B762F07C0662311F499270DC090512C
:104A7000862B70E060E02AF09A95660F771F881FFA
:104A8000DAF7880F9695879597F908959F3F31F04B
:104A9000915020F4879577956795B795880F911D6C
:104AA0009695879597F908950E949423A0F0BEE704
:104AB000B91788F4BB279F3860F41616B11D672F0D
:104AC000782F8827985FF7CF869577956795B11DE2
:104AD00093959639C8F308950E94D32208F48FEF76
:104AE00008950E94D322880B990B0895AA1BBB1B23
:104AF00051E107C0AA1FBB1FA617B70710F0A61BDE
:104B0000B70B881F991F5A95A9F780959095BC01FE
:104B1000CD01089597FB072E16F4009407D077FD7A
:104B200009D00E94762507FC05D03EF4909581952A
:104B30009F4F0895709561957F4F0895A1E21A2EB9
:104B4000AA1BBB1BFD010DC0AA1FBB1FEE1FFF1F31
:104B5000A217B307E407F50720F0A21BB30BE40B81
:104B6000F50B661F771F881F991F1A9469F76095C8
:104B70007095809590959B01AC01BD01CF01089582
:104B8000052E97FB1EF400940E94D72557FD07D0F1
:104B90000E949E2507FC03D04EF40C94D725509517
:104BA0004095309521953F4F4F4F5F4F0895909519
:104BB0008095709561957F4F8F4F9F4F0895EE0FB1
:104BC000FF1F0590F491E02D09940F931F93CF934D
:104BD000DF938230910510F482E090E0E0918B0544
:104BE000F0918C0530E020E0B0E0A0E0309799F43F
:104BF0002115310509F44AC0281B390B2430310531
:104C0000D8F58A819B816115710589F1FB01938338
:104C10008283FE0111C040815181028113814817B6
:104C20005907E0F04817590799F4109761F0129668
:104C30000C93129713961C933296CF01DF91CF916C
:104C40001F910F91089500938B0510938C05F4CF5D
:104C50002115310551F04217530738F0A901DB0146
:104C60009A01BD01DF01F801C1CFEF01F9CF9093A7
:104C70008C0580938B05CDCFFE01E20FF31F81934E
:104C800091932250310939832883D7CF2091890508
:104C900030918A05232B41F42091070130910801BE
:104CA00030938A05209389052091050130910601F2
:104CB0002115310541F42DB73EB7409109015091BE
:104CC0000A01241B350BE0918905F0918A05E21752
:104CD000F307A0F42E1B3F0B2817390778F0AC011F
:104CE0004E5F5F4F2417350748F04E0F5F1F5093FC
:104CF0008A0540938905819391939FCFF0E0E0E08E
:104D00009CCFCF93DF930097E9F0FC013297138299
:104D10001282A0918B05B0918C05ED0130E020E06E
:104D20001097A1F420813181820F931F2091890572
:104D300030918A052817390709F061C0F0938A0578
:104D4000E0938905DF91CF910895EA01CE17DF073F
:104D5000E8F54A815B819E0141155105B1F7E901F2
:104D6000FB83EA8349915991C40FD51FEC17FD07C6
:104D700061F4808191810296840F951FE9019983E6
:104D80008883828193819B838A83F0E0E0E012969E
:104D90008D919C9113970097B9F52D913C911197A6
:104DA000CD010296820F931F2091890530918A05CB
:104DB0002817390739F6309751F510928C05109263
:104DC0008B05B0938A05A0938905BCCFD383C2839A
:104DD00040815181840F951FC817D90761F44E5F38
:104DE0005F4F88819981480F591F518340838A8181
:104DF0009B81938382832115310509F0B0CFF09315
:104E00008C05E0938B059ECFFD01DC01C0CF1382A2
:104E10001282D7CFB0E0A0E0E0E1F7E20C94C22329
:104E20008C01009751F4CB010E94E5258C01C8014B
:104E3000CDB7DEB7E0E10C94DE23FC01E60FF71FEF
:104E40009C0122503109E217F30708F49DC0D901F3
:104E5000CD91DC911197C617D70798F0C530D105D1
:104E600030F3CE0104978617970708F3C61BD70BBC
:104E70002297C193D1936D937C93CF010E94812699
:104E8000D6CF5B01AC1ABD0A4C018C0E9D1EA091C1
:104E90008B05B0918C05512C412CF12CE12C1097F5
:104EA00031F58091890590918A058815990509F059
:104EB0005CC04616570608F058C0809105019091D5
:104EC0000601009741F48DB79EB7409109015091BA
:104ED0000A01841B950BE817F90708F055C0F093F9
:104EE0008A05E0938905F90171836083A0CF8D91D4
:104EF0009C91119712966C90129713967C90139731
:104F0000A815B90559F56C0142E0C40ED11CCA14AC
:104F1000DB0420F1AC014A195B09DA0112961597FE
:104F200080F06282738251834083D9016D937C93B8
:104F3000E114F10471F0D7011396FC93EE931297EC
:104F400076CF22968C0F9D1FF90191838083F30108
:104F5000EFCFF0938C05E0938B0569CF4816590687
:104F600008F42C017D01D3019ACFCB010E94E525E5
:104F70007C01009749F0AE01B8010E94CC27C8011E
:104F80000E948126870153CF10E000E050CF81E0DE
:104F900090E0F8940C94E727FB01DC0102C001903B
:104FA0000D9241505040D8F70895FC018191861729
:104FB00021F08823D9F7992708953197CF010895D3
:104FC000FB01DC0101900D920020E1F7089510E053
:104FD000CFEBD0E004C0FE010E94DF252196C03C4B
:104FE000D107C9F7F894FFCF72067206FF00008D53
:104FF00005800000000000ED043F046C045505A787
:10500000047C049904000000008F16020BE0155682
:105010000C4D09710E510EBD0BC510140BDA08B3FF
:105020000A0D0796065B0A2507CC07C70E0000008D
:1050300000470736070D0A006E616E00696E660054
:105040006F76660056616C76652053746174757373
:105050003A20005475726E6564204F4E2056616C84
:105060007665004F4E005475726E6564204F46465B
:105070002056616C7665004F464600560020494E2A
:105080004544583A002056414C564520535441540B
:1050900055533A00204241543A00250020524550D1
:1050A0004C593A0049443A00445448303031005693
:1050B000616C76652073746172742E005B53657445
:1050C0005D536C656570204D6F6465205365740099
:1050D000436F64652073746172743E3E00436F6475
:1050E0006520656E643C3C005B57617463682064B6
:0450F0006F675D0089
:107E0000112484B714BE81FFF0D085E080938100F7
:107E100082E08093C00088E18093C10086E0809377
:107E2000C20080E18093C4008EE0C9D0259A86E02C
:107E300020E33CEF91E0309385002093840096BBD3
:107E4000B09BFECF1D9AA8958150A9F7CC24DD24C4
:107E500088248394B5E0AB2EA1E19A2EF3E0BF2EE7
:107E6000A2D0813461F49FD0082FAFD0023811F036
:107E7000013811F484E001C083E08DD089C08234E0
:107E800011F484E103C0853419F485E0A6D080C0E4
:107E9000853579F488D0E82EFF2485D0082F10E0AE
:107EA000102F00270E291F29000F111F8ED06801E7
:107EB0006FC0863521F484E090D080E0DECF843638
:107EC00009F040C070D06FD0082F6DD080E0C81688
:107ED00080E7D80618F4F601B7BEE895C0E0D1E017
:107EE00062D089930C17E1F7F0E0CF16F0E7DF06D8
:107EF00018F0F601B7BEE89568D007B600FCFDCFD4
:107F0000A601A0E0B1E02C9130E011968C91119780
:107F100090E0982F8827822B932B1296FA010C0160
:107F200087BEE89511244E5F5F4FF1E0A038BF0790
:107F300051F7F601A7BEE89507B600FCFDCF97BE46
:107F4000E89526C08437B1F42ED02DD0F82E2BD052
:107F50003CD0F601EF2C8F010F5F1F4F84911BD097
:107F6000EA94F801C1F70894C11CD11CFA94CF0C13
:107F7000D11C0EC0853739F428D08EE10CD085E9AC
:107F80000AD08FE07ACF813511F488E018D01DD067
:107F900080E101D065CF982F8091C00085FFFCCF94
:107FA0009093C60008958091C00087FFFCCF809118
:107FB000C00084FD01C0A8958091C6000895E0E648
:107FC000F0E098E1908380830895EDDF803219F02E
:107FD00088E0F5DFFFCF84E1DECF1F93182FE3DFCA
:107FE0001150E9F7F2DF1F91089580E0E8DFEE27F6
:047FF000FF270994CA
:027FFE00040479
:00000001FF
